{
  "_format": "hh-sol-artifact-1",
  "contractName": "WETH",
  "sourceName": "contracts/WETH.sol",
  "abi": [
    {
      "inputs": [
        {
          "internalType": "string",
          "name": "name_",
          "type": "string"
        },
        {
          "internalType": "string",
          "name": "symbol_",
          "type": "string"
        }
      ],
      "stateMutability": "nonpayable",
      "type": "constructor"
    },
    {
      "anonymous": false,
      "inputs": [
        {
          "indexed": true,
          "internalType": "address",
          "name": "owner",
          "type": "address"
        },
        {
          "indexed": true,
          "internalType": "address",
          "name": "spender",
          "type": "address"
        },
        {
          "indexed": false,
          "internalType": "uint256",
          "name": "amount",
          "type": "uint256"
        }
      ],
      "name": "Approval",
      "type": "event"
    },
    {
      "anonymous": false,
      "inputs": [
        {
          "indexed": true,
          "internalType": "address",
          "name": "from",
          "type": "address"
        },
        {
          "indexed": true,
          "internalType": "address",
          "name": "to",
          "type": "address"
        },
        {
          "indexed": false,
          "internalType": "uint256",
          "name": "amount",
          "type": "uint256"
        }
      ],
      "name": "Transfer",
      "type": "event"
    },
    {
      "inputs": [
        {
          "internalType": "address",
          "name": "",
          "type": "address"
        },
        {
          "internalType": "address",
          "name": "",
          "type": "address"
        }
      ],
      "name": "_allowance",
      "outputs": [
        {
          "internalType": "uint256",
          "name": "",
          "type": "uint256"
        }
      ],
      "stateMutability": "view",
      "type": "function"
    },
    {
      "inputs": [
        {
          "internalType": "address",
          "name": "",
          "type": "address"
        }
      ],
      "name": "_balanceOf",
      "outputs": [
        {
          "internalType": "uint256",
          "name": "",
          "type": "uint256"
        }
      ],
      "stateMutability": "view",
      "type": "function"
    },
    {
      "inputs": [
        {
          "internalType": "address",
          "name": "owner",
          "type": "address"
        },
        {
          "internalType": "address",
          "name": "spender",
          "type": "address"
        }
      ],
      "name": "allowance",
      "outputs": [
        {
          "internalType": "uint256",
          "name": "",
          "type": "uint256"
        }
      ],
      "stateMutability": "view",
      "type": "function"
    },
    {
      "inputs": [
        {
          "internalType": "address",
          "name": "guy",
          "type": "address"
        },
        {
          "internalType": "uint256",
          "name": "wad",
          "type": "uint256"
        }
      ],
      "name": "approve",
      "outputs": [
        {
          "internalType": "bool",
          "name": "",
          "type": "bool"
        }
      ],
      "stateMutability": "nonpayable",
      "type": "function"
    },
    {
      "inputs": [
        {
          "internalType": "address",
          "name": "owner",
          "type": "address"
        },
        {
          "internalType": "address",
          "name": "spender",
          "type": "address"
        }
      ],
      "name": "approve",
      "outputs": [
        {
          "internalType": "bool",
          "name": "",
          "type": "bool"
        }
      ],
      "stateMutability": "nonpayable",
      "type": "function"
    },
    {
      "inputs": [
        {
          "internalType": "address",
          "name": "owner",
          "type": "address"
        }
      ],
      "name": "balanceOf",
      "outputs": [
        {
          "internalType": "uint256",
          "name": "",
          "type": "uint256"
        }
      ],
      "stateMutability": "view",
      "type": "function"
    },
    {
      "inputs": [],
      "name": "decimals",
      "outputs": [
        {
          "internalType": "uint8",
          "name": "",
          "type": "uint8"
        }
      ],
      "stateMutability": "view",
      "type": "function"
    },
    {
      "inputs": [],
      "name": "deposit",
      "outputs": [],
      "stateMutability": "payable",
      "type": "function"
    },
    {
      "inputs": [],
      "name": "name",
      "outputs": [
        {
          "internalType": "string",
          "name": "",
          "type": "string"
        }
      ],
      "stateMutability": "view",
      "type": "function"
    },
    {
      "inputs": [],
      "name": "symbol",
      "outputs": [
        {
          "internalType": "string",
          "name": "",
          "type": "string"
        }
      ],
      "stateMutability": "view",
      "type": "function"
    },
    {
      "inputs": [],
      "name": "totalSupply",
      "outputs": [
        {
          "internalType": "uint256",
          "name": "",
          "type": "uint256"
        }
      ],
      "stateMutability": "view",
      "type": "function"
    },
    {
      "inputs": [
        {
          "internalType": "address",
          "name": "dst",
          "type": "address"
        },
        {
          "internalType": "uint256",
          "name": "wad",
          "type": "uint256"
        }
      ],
      "name": "transfer",
      "outputs": [
        {
          "internalType": "bool",
          "name": "",
          "type": "bool"
        }
      ],
      "stateMutability": "nonpayable",
      "type": "function"
    },
    {
      "inputs": [
        {
          "internalType": "address",
          "name": "src",
          "type": "address"
        },
        {
          "internalType": "address",
          "name": "dst",
          "type": "address"
        },
        {
          "internalType": "uint256",
          "name": "wad",
          "type": "uint256"
        }
      ],
      "name": "transferFrom",
      "outputs": [
        {
          "internalType": "bool",
          "name": "",
          "type": "bool"
        }
      ],
      "stateMutability": "nonpayable",
      "type": "function"
    },
    {
      "inputs": [
        {
          "internalType": "uint256",
          "name": "wad",
          "type": "uint256"
        }
      ],
      "name": "withdraw",
      "outputs": [],
      "stateMutability": "nonpayable",
      "type": "function"
    },
    {
      "stateMutability": "payable",
      "type": "receive"
    }
  ],
  "bytecode": "0x60806040526002805460ff191660121790553480156200001e57600080fd5b5060405162000c9438038062000c948339810160408190526200004191620001e8565b81516200005690600090602085019062000075565b5080516200006c90600190602084019062000075565b5050506200028f565b828054620000839062000252565b90600052602060002090601f016020900481019282620000a75760008555620000f2565b82601f10620000c257805160ff1916838001178555620000f2565b82800160010185558215620000f2579182015b82811115620000f2578251825591602001919060010190620000d5565b506200010092915062000104565b5090565b5b8082111562000100576000815560010162000105565b634e487b7160e01b600052604160045260246000fd5b600082601f8301126200014357600080fd5b81516001600160401b03808211156200016057620001606200011b565b604051601f8301601f19908116603f011681019082821181831017156200018b576200018b6200011b565b81604052838152602092508683858801011115620001a857600080fd5b600091505b83821015620001cc5785820183015181830184015290820190620001ad565b83821115620001de5760008385830101525b9695505050505050565b60008060408385031215620001fc57600080fd5b82516001600160401b03808211156200021457600080fd5b620002228683870162000131565b935060208501519150808211156200023957600080fd5b50620002488582860162000131565b9150509250929050565b600181811c908216806200026757607f821691505b602082108114156200028957634e487b7160e01b600052602260045260246000fd5b50919050565b6109f5806200029f6000396000f3fe6080604052600436106100e15760003560e01c80637e5465ba1161007f578063cca3e83211610059578063cca3e83214610269578063d0e30db014610296578063dd336c121461029e578063dd62ed3e146102d657600080fd5b80637e5465ba1461021457806395d89b4114610234578063a9059cbb1461024957600080fd5b806323b872dd116100bb57806323b872dd1461017c5780632e1a7d4d1461019c578063313ce567146101bc57806370a08231146101de57600080fd5b806306fdde03146100f5578063095ea7b31461012057806318160ddd1461015057600080fd5b366100f0576100ee610317565b005b600080fd5b34801561010157600080fd5b5061010a61033d565b6040516101179190610801565b60405180910390f35b34801561012c57600080fd5b5061014061013b366004610872565b6103cf565b6040519015158152602001610117565b34801561015c57600080fd5b50306000908152600360205260409020545b604051908152602001610117565b34801561018857600080fd5b5061014061019736600461089c565b61043b565b3480156101a857600080fd5b506100ee6101b73660046108d8565b6105bf565b3480156101c857600080fd5b5060025460405160ff9091168152602001610117565b3480156101ea57600080fd5b5061016e6101f93660046108f1565b6001600160a01b031660009081526003602052604090205490565b34801561022057600080fd5b5061014061022f36600461090c565b61068b565b34801561024057600080fd5b5061010a6106ba565b34801561025557600080fd5b50610140610264366004610872565b6106c9565b34801561027557600080fd5b5061016e6102843660046108f1565b60036020526000908152604090205481565b6100ee610317565b3480156102aa57600080fd5b5061016e6102b936600461090c565b600460209081526000928352604080842090915290825290205481565b3480156102e257600080fd5b5061016e6102f136600461090c565b6001600160a01b0391821660009081526004602090815260408220929093168152915290565b3360009081526003602052604081208054349290610336908490610955565b9091555050565b60606000805461034c9061096d565b80601f01602080910402602001604051908101604052809291908181526020018280546103789061096d565b80156103c55780601f1061039a576101008083540402835291602001916103c5565b820191906000526020600020905b8154815290600101906020018083116103a857829003601f168201915b5050505050905090565b3360008181526004602090815260408083206001600160a01b038716808552925280832085905551919290917f8c5be1e5ebec7d5bd14f71427d1e84f3dd0314c0f7b2291e5b200ac8c7c3b9259061042a9086815260200190565b60405180910390a350600192915050565b6001600160a01b03831660009081526003602052604081205482111561046057600080fd5b6001600160a01b038416331480159061049e57506001600160a01b038416600090815260046020908152604080832033845290915290205460001914155b1561050c576001600160a01b03841660009081526004602090815260408083203384529091529020548211156104d357600080fd5b6001600160a01b0384166000908152600460209081526040808320338452909152812080548492906105069084906109a8565b90915550505b6001600160a01b038416600090815260036020526040812080548492906105349084906109a8565b90915550506001600160a01b03831660009081526003602052604081208054849290610561908490610955565b92505081905550826001600160a01b0316846001600160a01b03167fddf252ad1be2c89b69c2b068fc378daa952ba7f163c4a11628f55a4df523b3ef846040516105ad91815260200190565b60405180910390a35060019392505050565b336000908152600360205260409020548111156106365760405162461bcd60e51b815260206004820152602a60248201527f73656e6465722062616c616e636520696e73756666696369656e7420666f72206044820152691dda5d1a191c985dd85b60b21b60648201526084015b60405180910390fd5b33600090815260036020526040812080548392906106559084906109a8565b9091555050604051339082156108fc029083906000818181858888f19350505050158015610687573d6000803e3d6000fd5b5050565b6001600160a01b0382166000908152600360205260408120546106b190849084906106dd565b50600192915050565b60606001805461034c9061096d565b60006106d633848461043b565b9392505050565b6001600160a01b03831661073f5760405162461bcd60e51b8152602060048201526024808201527f45524332303a20617070726f76652066726f6d20746865207a65726f206164646044820152637265737360e01b606482015260840161062d565b6001600160a01b0382166107a05760405162461bcd60e51b815260206004820152602260248201527f45524332303a20617070726f766520746f20746865207a65726f206164647265604482015261737360f01b606482015260840161062d565b6001600160a01b0383811660008181526004602090815260408083209487168084529482529182902085905590518481527f8c5be1e5ebec7d5bd14f71427d1e84f3dd0314c0f7b2291e5b200ac8c7c3b925910160405180910390a3505050565b600060208083528351808285015260005b8181101561082e57858101830151858201604001528201610812565b81811115610840576000604083870101525b50601f01601f1916929092016040019392505050565b80356001600160a01b038116811461086d57600080fd5b919050565b6000806040838503121561088557600080fd5b61088e83610856565b946020939093013593505050565b6000806000606084860312156108b157600080fd5b6108ba84610856565b92506108c860208501610856565b9150604084013590509250925092565b6000602082840312156108ea57600080fd5b5035919050565b60006020828403121561090357600080fd5b6106d682610856565b6000806040838503121561091f57600080fd5b61092883610856565b915061093660208401610856565b90509250929050565b634e487b7160e01b600052601160045260246000fd5b600082198211156109685761096861093f565b500190565b600181811c9082168061098157607f821691505b602082108114156109a257634e487b7160e01b600052602260045260246000fd5b50919050565b6000828210156109ba576109ba61093f565b50039056fea2646970667358221220162d8f40ccaad4687415badfbe3bc373409cbafdb7999b9f756d45d51cb2987d64736f6c634300080a0033",
  "linkReferences": {},
  "deployedLinkReferences": {}
}