{
  "_format": "hh-sol-artifact-1",
  "contractName": "GovernorBravoDelegate",
  "sourceName": "contracts/Governance/GovernorBravoDelegate.sol",
  "abi": [
    {
      "anonymous": false,
      "inputs": [
        {
          "indexed": false,
          "internalType": "address",
          "name": "oldAdmin",
          "type": "address"
        },
        {
          "indexed": false,
          "internalType": "address",
          "name": "newAdmin",
          "type": "address"
        }
      ],
      "name": "NewAdmin",
      "type": "event"
    },
    {
      "anonymous": false,
      "inputs": [
        {
          "indexed": false,
          "internalType": "address",
          "name": "oldImplementation",
          "type": "address"
        },
        {
          "indexed": false,
          "internalType": "address",
          "name": "newImplementation",
          "type": "address"
        }
      ],
      "name": "NewImplementation",
      "type": "event"
    },
    {
      "anonymous": false,
      "inputs": [
        {
          "indexed": false,
          "internalType": "address",
          "name": "oldPendingAdmin",
          "type": "address"
        },
        {
          "indexed": false,
          "internalType": "address",
          "name": "newPendingAdmin",
          "type": "address"
        }
      ],
      "name": "NewPendingAdmin",
      "type": "event"
    },
    {
      "anonymous": false,
      "inputs": [
        {
          "indexed": false,
          "internalType": "uint256",
          "name": "id",
          "type": "uint256"
        }
      ],
      "name": "ProposalCanceled",
      "type": "event"
    },
    {
      "anonymous": false,
      "inputs": [
        {
          "indexed": false,
          "internalType": "uint256",
          "name": "id",
          "type": "uint256"
        },
        {
          "indexed": false,
          "internalType": "address",
          "name": "proposer",
          "type": "address"
        },
        {
          "indexed": false,
          "internalType": "address[]",
          "name": "targets",
          "type": "address[]"
        },
        {
          "indexed": false,
          "internalType": "uint256[]",
          "name": "values",
          "type": "uint256[]"
        },
        {
          "indexed": false,
          "internalType": "string[]",
          "name": "signatures",
          "type": "string[]"
        },
        {
          "indexed": false,
          "internalType": "bytes[]",
          "name": "calldatas",
          "type": "bytes[]"
        },
        {
          "indexed": false,
          "internalType": "uint256",
          "name": "startBlock",
          "type": "uint256"
        },
        {
          "indexed": false,
          "internalType": "uint256",
          "name": "endBlock",
          "type": "uint256"
        },
        {
          "indexed": false,
          "internalType": "string",
          "name": "description",
          "type": "string"
        }
      ],
      "name": "ProposalCreated",
      "type": "event"
    },
    {
      "anonymous": false,
      "inputs": [
        {
          "indexed": false,
          "internalType": "uint256",
          "name": "id",
          "type": "uint256"
        }
      ],
      "name": "ProposalExecuted",
      "type": "event"
    },
    {
      "anonymous": false,
      "inputs": [
        {
          "indexed": false,
          "internalType": "uint256",
          "name": "id",
          "type": "uint256"
        },
        {
          "indexed": false,
          "internalType": "uint256",
          "name": "eta",
          "type": "uint256"
        }
      ],
      "name": "ProposalQueued",
      "type": "event"
    },
    {
      "anonymous": false,
      "inputs": [
        {
          "indexed": false,
          "internalType": "uint256",
          "name": "oldProposalThreshold",
          "type": "uint256"
        },
        {
          "indexed": false,
          "internalType": "uint256",
          "name": "newProposalThreshold",
          "type": "uint256"
        }
      ],
      "name": "ProposalThresholdSet",
      "type": "event"
    },
    {
      "inputs": [],
      "name": "BALLOT_TYPEHASH",
      "outputs": [
        {
          "internalType": "bytes32",
          "name": "",
          "type": "bytes32"
        }
      ],
      "stateMutability": "view",
      "type": "function"
    },
    {
      "inputs": [],
      "name": "DOMAIN_TYPEHASH",
      "outputs": [
        {
          "internalType": "bytes32",
          "name": "",
          "type": "bytes32"
        }
      ],
      "stateMutability": "view",
      "type": "function"
    },
    {
      "inputs": [],
      "name": "_acceptAdmin",
      "outputs": [],
      "stateMutability": "nonpayable",
      "type": "function"
    },
    {
      "inputs": [
        {
          "internalType": "address",
          "name": "governorAlpha",
          "type": "address"
        }
      ],
      "name": "_initiate",
      "outputs": [],
      "stateMutability": "nonpayable",
      "type": "function"
    },
    {
      "inputs": [
        {
          "internalType": "address",
          "name": "newPendingAdmin",
          "type": "address"
        }
      ],
      "name": "_setPendingAdmin",
      "outputs": [],
      "stateMutability": "nonpayable",
      "type": "function"
    },
    {
      "inputs": [],
      "name": "admin",
      "outputs": [
        {
          "internalType": "address",
          "name": "",
          "type": "address"
        }
      ],
      "stateMutability": "view",
      "type": "function"
    },
    {
      "inputs": [
        {
          "internalType": "uint256",
          "name": "proposalId",
          "type": "uint256"
        }
      ],
      "name": "execute",
      "outputs": [],
      "stateMutability": "payable",
      "type": "function"
    },
    {
      "inputs": [
        {
          "internalType": "uint256",
          "name": "proposalId",
          "type": "uint256"
        }
      ],
      "name": "getActions",
      "outputs": [
        {
          "internalType": "address[]",
          "name": "targets",
          "type": "address[]"
        },
        {
          "internalType": "uint256[]",
          "name": "values",
          "type": "uint256[]"
        },
        {
          "internalType": "string[]",
          "name": "signatures",
          "type": "string[]"
        },
        {
          "internalType": "bytes[]",
          "name": "calldatas",
          "type": "bytes[]"
        }
      ],
      "stateMutability": "view",
      "type": "function"
    },
    {
      "inputs": [],
      "name": "implementation",
      "outputs": [
        {
          "internalType": "address",
          "name": "",
          "type": "address"
        }
      ],
      "stateMutability": "view",
      "type": "function"
    },
    {
      "inputs": [],
      "name": "initialProposalId",
      "outputs": [
        {
          "internalType": "uint256",
          "name": "",
          "type": "uint256"
        }
      ],
      "stateMutability": "view",
      "type": "function"
    },
    {
      "inputs": [
        {
          "internalType": "address",
          "name": "timelock_",
          "type": "address"
        }
      ],
      "name": "initialize",
      "outputs": [],
      "stateMutability": "nonpayable",
      "type": "function"
    },
    {
      "inputs": [
        {
          "internalType": "address",
          "name": "",
          "type": "address"
        }
      ],
      "name": "latestProposalIds",
      "outputs": [
        {
          "internalType": "uint256",
          "name": "",
          "type": "uint256"
        }
      ],
      "stateMutability": "view",
      "type": "function"
    },
    {
      "inputs": [],
      "name": "name",
      "outputs": [
        {
          "internalType": "string",
          "name": "",
          "type": "string"
        }
      ],
      "stateMutability": "view",
      "type": "function"
    },
    {
      "inputs": [],
      "name": "pendingAdmin",
      "outputs": [
        {
          "internalType": "address",
          "name": "",
          "type": "address"
        }
      ],
      "stateMutability": "view",
      "type": "function"
    },
    {
      "inputs": [],
      "name": "proposalCount",
      "outputs": [
        {
          "internalType": "uint256",
          "name": "",
          "type": "uint256"
        }
      ],
      "stateMutability": "view",
      "type": "function"
    },
    {
      "inputs": [],
      "name": "proposalMaxOperations",
      "outputs": [
        {
          "internalType": "uint256",
          "name": "",
          "type": "uint256"
        }
      ],
      "stateMutability": "view",
      "type": "function"
    },
    {
      "inputs": [],
      "name": "proposalThreshold",
      "outputs": [
        {
          "internalType": "uint256",
          "name": "",
          "type": "uint256"
        }
      ],
      "stateMutability": "view",
      "type": "function"
    },
    {
      "inputs": [
        {
          "internalType": "uint256",
          "name": "",
          "type": "uint256"
        }
      ],
      "name": "proposals",
      "outputs": [
        {
          "internalType": "uint256",
          "name": "id",
          "type": "uint256"
        },
        {
          "internalType": "address",
          "name": "proposer",
          "type": "address"
        },
        {
          "internalType": "uint256",
          "name": "eta",
          "type": "uint256"
        },
        {
          "internalType": "bool",
          "name": "canceled",
          "type": "bool"
        },
        {
          "internalType": "bool",
          "name": "executed",
          "type": "bool"
        }
      ],
      "stateMutability": "view",
      "type": "function"
    },
    {
      "inputs": [
        {
          "internalType": "uint256",
          "name": "proposalId",
          "type": "uint256"
        }
      ],
      "name": "queue",
      "outputs": [],
      "stateMutability": "nonpayable",
      "type": "function"
    },
    {
      "inputs": [
        {
          "internalType": "uint256",
          "name": "proposalId",
          "type": "uint256"
        }
      ],
      "name": "state",
      "outputs": [
        {
          "internalType": "enum GovernorBravoDelegateStorageV1.ProposalState",
          "name": "",
          "type": "uint8"
        }
      ],
      "stateMutability": "view",
      "type": "function"
    },
    {
      "inputs": [],
      "name": "timelock",
      "outputs": [
        {
          "internalType": "contract TimelockInterface",
          "name": "",
          "type": "address"
        }
      ],
      "stateMutability": "view",
      "type": "function"
    },
    {
      "inputs": [],
      "name": "votingDelay",
      "outputs": [
        {
          "internalType": "uint256",
          "name": "",
          "type": "uint256"
        }
      ],
      "stateMutability": "view",
      "type": "function"
    },
    {
      "inputs": [],
      "name": "votingPeriod",
      "outputs": [
        {
          "internalType": "uint256",
          "name": "",
          "type": "uint256"
        }
      ],
      "stateMutability": "view",
      "type": "function"
    }
  ],
  "bytecode": "0x608060405234801561001057600080fd5b506121e0806100206000396000f3fe6080604052600436106101405760003560e01c8063b58131b0116100b6578063deaaa7cc1161006f578063deaaa7cc1461043f578063e9c714f214610473578063f851a44014610488578063f9d28b80146104a8578063fc4eee42146104c8578063fe0d94c1146104de57600080fd5b8063b58131b014610391578063b71d1a0c146103a7578063c4d66de8146103c9578063d33219b4146103e9578063da35c66414610409578063ddf0b0091461041f57600080fd5b8063267822471161010857806326782247146102b1578063328dd982146102e95780633932abb1146103195780633e4f49e61461032f5780635c60da1b1461035c5780637bdbe4d01461037c57600080fd5b8063013cf08b1461014557806302a251a3146101d657806306fdde03146101fa57806317977c611461025057806320606b701461027d575b600080fd5b34801561015157600080fd5b5061019d61016036600461198d565b600960205260009081526040902080546001820154600283015460079093015491926001600160a01b039091169160ff8082169161010090041685565b604080519586526001600160a01b03909416602086015292840191909152151560608301521515608082015260a0015b60405180910390f35b3480156101e257600080fd5b506101ec60045481565b6040519081526020016101cd565b34801561020657600080fd5b506102436040518060400160405280601781526020017f436f6d706f756e6420476f7665726e6f7220427261766f00000000000000000081525081565b6040516101cd9190611a02565b34801561025c57600080fd5b506101ec61026b366004611a2a565b600a6020526000908152604090205481565b34801561028957600080fd5b506101ec7f8cad95687ba82c2ce50e74f7b754645e5117c3a5bec8151c0726d5857980a86681565b3480156102bd57600080fd5b506001546102d1906001600160a01b031681565b6040516001600160a01b0390911681526020016101cd565b3480156102f557600080fd5b5061030961030436600461198d565b6104f1565b6040516101cd9493929190611a9c565b34801561032557600080fd5b506101ec60035481565b34801561033b57600080fd5b5061034f61034a36600461198d565b610782565b6040516101cd9190611b5e565b34801561036857600080fd5b506002546102d1906001600160a01b031681565b34801561038857600080fd5b506101ec600a81565b34801561039d57600080fd5b506101ec60055481565b3480156103b357600080fd5b506103c76103c2366004611a2a565b6108bb565b005b3480156103d557600080fd5b506103c76103e4366004611a2a565b61098a565b3480156103f557600080fd5b506008546102d1906001600160a01b031681565b34801561041557600080fd5b506101ec60075481565b34801561042b57600080fd5b506103c761043a36600461198d565b610b1d565b34801561044b57600080fd5b506101ec7f150214d74d59b7d1e90c73fc22ef3d991dd0a76b046543d4d80ab92d2a50328f81565b34801561047f57600080fd5b506103c7611028565b34801561049457600080fd5b506000546102d1906001600160a01b031681565b3480156104b457600080fd5b506103c76104c3366004611a2a565b611152565b3480156104d457600080fd5b506101ec60065481565b6103c76104ec36600461198d565b6112ee565b6060806060806000600960008781526020019081526020016000209050806003018160040182600501836006018380548060200260200160405190810160405280929190818152602001828054801561057357602002820191906000526020600020905b81546001600160a01b03168152600190910190602001808311610555575b50505050509350828054806020026020016040519081016040528092919081815260200182805480156105c557602002820191906000526020600020905b8154815260200190600101908083116105b1575b5050505050925081805480602002602001604051908101604052809291908181526020016000905b8282101561069957838290600052602060002001805461060c90611b86565b80601f016020809104026020016040519081016040528092919081815260200182805461063890611b86565b80156106855780601f1061065a57610100808354040283529160200191610685565b820191906000526020600020905b81548152906001019060200180831161066857829003601f168201915b5050505050815260200190600101906105ed565b50505050915080805480602002602001604051908101604052809291908181526020016000905b8282101561076c5783829060005260206000200180546106df90611b86565b80601f016020809104026020016040519081016040528092919081815260200182805461070b90611b86565b80156107585780601f1061072d57610100808354040283529160200191610758565b820191906000526020600020905b81548152906001019060200180831161073b57829003601f168201915b5050505050815260200190600101906106c0565b5050505090509450945094509450509193509193565b60008160075410158015610797575060065482115b6107fa5760405162461bcd60e51b815260206004820152602960248201527f476f7665726e6f72427261766f3a3a73746174653a20696e76616c69642070726044820152681bdc1bdcd85b081a5960ba1b60648201526084015b60405180910390fd5b60008281526009602052604090206007810154610100900460ff16156108235750600292915050565b6002810154600854604080516360d143f160e11b8152905161089d93926001600160a01b03169163c1a287e29160048083019260209291908290030181865afa158015610874573d6000803e3d6000fd5b505050506040513d601f19601f820116820180604052508101906108989190611bbb565b61152b565b42106108ac5750600192915050565b50600092915050565b50919050565b6000546001600160a01b031633146109285760405162461bcd60e51b815260206004820152602a60248201527f476f7665726e6f72427261766f3a5f73657450656e64696e6741646d696e3a2060448201526961646d696e206f6e6c7960b01b60648201526084016107f1565b600180546001600160a01b038381166001600160a01b031983168117909355604080519190921680825260208201939093527fca4f2f25d0898edd99413412fb94012f9e54ec8142f9b093e7720646a95b16a991015b60405180910390a15050565b6008546001600160a01b0316156109ff5760405162461bcd60e51b815260206004820152603360248201527f476f7665726e6f72427261766f3a3a696e697469616c697a653a2063616e206f6044820152726e6c7920696e697469616c697a65206f6e636560681b60648201526084016107f1565b6000546001600160a01b03163314610a675760405162461bcd60e51b815260206004820152602560248201527f476f7665726e6f72427261766f3a3a696e697469616c697a653a2061646d696e604482015264206f6e6c7960d81b60648201526084016107f1565b6001600160a01b038116610ad95760405162461bcd60e51b815260206004820152603360248201527f476f7665726e6f72427261766f3a3a696e697469616c697a653a20696e76616c60448201527269642074696d656c6f636b206164647265737360681b60648201526084016107f1565b600b80547330e20d0a642adb85cb6e9da8fb9e3aadb0f593c06001600160a01b031991821617909155600880549091166001600160a01b0392909216919091179055565b600b54604051631e1c28f760e31b8152600481018390526000916001600160a01b03169063f0e147b890602401600060405180830381865afa158015610b67573d6000803e3d6000fd5b505050506040513d6000823e601f3d908101601f19168201604052610b8f9190810190611ea3565b9050806080015151816060015151148015610bb357508060a0015151816060015151145b8015610bc857508060c0015151816060015151145b610c485760405162461bcd60e51b8152602060048201526044602482018190527f476f7665726e6f72427261766f3a3a70726f706f73653a2070726f706f73616c908201527f2066756e6374696f6e20696e666f726d6174696f6e206172697479206d69736d6064820152630c2e8c6d60e31b608482015260a4016107f1565b606081015151610caf5760405162461bcd60e51b815260206004820152602c60248201527f476f7665726e6f72427261766f3a3a70726f706f73653a206d7573742070726f60448201526b7669646520616374696f6e7360a01b60648201526084016107f1565b600a8160600151511115610d165760405162461bcd60e51b815260206004820152602860248201527f476f7665726e6f72427261766f3a3a70726f706f73653a20746f6f206d616e7960448201526720616374696f6e7360c01b60648201526084016107f1565b80516000908152600960205260408082208351835291205415610d3857600080fd5b815181556000600282015560608201518051610d5e91600384019160209091019061173c565b5060808201518051610d7a9160048401916020909101906117a1565b5060a08201518051610d969160058401916020909101906117dc565b5060c08201518051610db2916006840191602090910190611835565b5060078101805461ffff191661010017905560085460408051630d48571f60e31b81529051600092610e179242926001600160a01b0390921691636a42b8f8916004808201926020929091908290030181865afa158015610874573d6000803e3d6000fd5b905060005b6003830154811015610fe157610fcf836003018281548110610e4057610e40611fce565b6000918252602090912001546004850180546001600160a01b039092169184908110610e6e57610e6e611fce565b9060005260206000200154856005018481548110610e8e57610e8e611fce565b906000526020600020018054610ea390611b86565b80601f0160208091040260200160405190810160405280929190818152602001828054610ecf90611b86565b8015610f1c5780601f10610ef157610100808354040283529160200191610f1c565b820191906000526020600020905b815481529060010190602001808311610eff57829003601f168201915b5050505050866006018581548110610f3657610f36611fce565b906000526020600020018054610f4b90611b86565b80601f0160208091040260200160405190810160405280929190818152602001828054610f7790611b86565b8015610fc45780601f10610f9957610100808354040283529160200191610fc4565b820191906000526020600020905b815481529060010190602001808311610fa757829003601f168201915b505050505086611585565b80610fd981611ffa565b915050610e1c565b506002820181905560408051858152602081018390527f9a2e42fd6722813d69113e7d0079d3d940171428df7373df9c7f7617cfda2892910160405180910390a150505050565b6001546001600160a01b03163314801561104157503315155b6110a45760405162461bcd60e51b815260206004820152602e60248201527f476f7665726e6f72427261766f3a5f61636365707441646d696e3a2070656e6460448201526d696e672061646d696e206f6e6c7960901b60648201526084016107f1565b60008054600180546001600160a01b038082166001600160a01b031980861682179096559490911690915560408051919092168082526020820184905292917ff9ffabca9c8276e99321725bcb43fb076a6c66a54b7f21c4e8146d8519b417dc910160405180910390a1600154604080516001600160a01b03808516825290921660208301527fca4f2f25d0898edd99413412fb94012f9e54ec8142f9b093e7720646a95b16a9910161097e565b6000546001600160a01b031633146111b85760405162461bcd60e51b8152602060048201526024808201527f476f7665726e6f72427261766f3a3a5f696e6974696174653a2061646d696e206044820152636f6e6c7960e01b60648201526084016107f1565b600654156112215760405162461bcd60e51b815260206004820152603060248201527f476f7665726e6f72427261766f3a3a5f696e6974696174653a2063616e206f6e60448201526f6c7920696e697469617465206f6e636560801b60648201526084016107f1565b806001600160a01b031663da35c6646040518163ffffffff1660e01b81526004016020604051808303816000875af1158015611261573d6000803e3d6000fd5b505050506040513d601f19601f820116820180604052508101906112859190611bbb565b600781905560065560085460408051630e18b68160e01b815290516001600160a01b0390921691630e18b6819160048082019260009290919082900301818387803b1580156112d357600080fd5b505af11580156112e7573d6000803e3d6000fd5b5050505050565b60006112f982610782565b600281111561130a5761130a611b48565b1461138b5760405162461bcd60e51b815260206004820152604560248201527f476f7665726e6f72427261766f3a3a657865637574653a2070726f706f73616c60448201527f2063616e206f6e6c7920626520657865637574656420696620697420697320716064820152641d595d595960da1b608482015260a4016107f1565b600081815260096020526040812060078101805461ff001916610100179055905b60038201548110156114fa576008546004830180546001600160a01b0390921691630825f38f9190849081106113e4576113e4611fce565b906000526020600020015484600301848154811061140457611404611fce565b6000918252602090912001546004860180546001600160a01b03909216918690811061143257611432611fce565b906000526020600020015486600501868154811061145257611452611fce565b9060005260206000200187600601878154811061147157611471611fce565b9060005260206000200188600201546040518763ffffffff1660e01b81526004016114a09594939291906120b6565b60006040518083038185885af11580156114be573d6000803e3d6000fd5b50505050506040513d6000823e601f3d908101601f191682016040526114e79190810190612102565b50806114f281611ffa565b9150506113ac565b506040518281527f712ae1383f79ac853f8d882153778e0260ef8f03b504e2866e0593e04d2b291f9060200161097e565b6000806115388385612137565b90508381101561157e5760405162461bcd60e51b81526020600482015260116024820152706164646974696f6e206f766572666c6f7760781b60448201526064016107f1565b9392505050565b6008546040516001600160a01b039091169063f2b06537906115b3908890889088908890889060200161214f565b604051602081830303815290604052805190602001206040518263ffffffff1660e01b81526004016115e791815260200190565b602060405180830381865afa158015611604573d6000803e3d6000fd5b505050506040513d601f19601f820116820180604052508101906116289190612188565b156116b95760405162461bcd60e51b815260206004820152605560248201527f476f7665726e6f72427261766f3a3a71756575654f72526576657274496e746560448201527f726e616c3a206964656e746963616c2070726f706f73616c20616374696f6e20606482015274616c7265616479207175657565642061742065746160581b608482015260a4016107f1565b600854604051633a66f90160e01b81526001600160a01b0390911690633a66f901906116f1908890889088908890889060040161214f565b6020604051808303816000875af1158015611710573d6000803e3d6000fd5b505050506040513d601f19601f820116820180604052508101906117349190611bbb565b505050505050565b828054828255906000526020600020908101928215611791579160200282015b8281111561179157825182546001600160a01b0319166001600160a01b0390911617825560209092019160019091019061175c565b5061179d92915061188e565b5090565b828054828255906000526020600020908101928215611791579160200282015b828111156117915782518255916020019190600101906117c1565b828054828255906000526020600020908101928215611829579160200282015b8281111561182957825180516118199184916020909101906118a3565b50916020019190600101906117fc565b5061179d929150611916565b828054828255906000526020600020908101928215611882579160200282015b8281111561188257825180516118729184916020909101906118a3565b5091602001919060010190611855565b5061179d929150611933565b5b8082111561179d576000815560010161188f565b8280546118af90611b86565b90600052602060002090601f0160209004810192826118d15760008555611791565b82601f106118ea57805160ff1916838001178555611791565b8280016001018555821561179157918201828111156117915782518255916020019190600101906117c1565b8082111561179d57600061192a8282611950565b50600101611916565b8082111561179d5760006119478282611950565b50600101611933565b50805461195c90611b86565b6000825580601f1061196c575050565b601f01602090049060005260206000209081019061198a919061188e565b50565b60006020828403121561199f57600080fd5b5035919050565b60005b838110156119c15781810151838201526020016119a9565b838111156119d0576000848401525b50505050565b600081518084526119ee8160208601602086016119a6565b601f01601f19169290920160200192915050565b60208152600061157e60208301846119d6565b6001600160a01b038116811461198a57600080fd5b600060208284031215611a3c57600080fd5b813561157e81611a15565b600081518084526020808501808196508360051b8101915082860160005b85811015611a8f578284038952611a7d8483516119d6565b98850198935090840190600101611a65565b5091979650505050505050565b6080808252855190820181905260009060209060a0840190828901845b82811015611ade5781516001600160a01b031684529284019290840190600101611ab9565b5050508381038285015286518082528783019183019060005b81811015611b1357835183529284019291840191600101611af7565b50508481036040860152611b278188611a47565b925050508281036060840152611b3d8185611a47565b979650505050505050565b634e487b7160e01b600052602160045260246000fd5b6020810160038310611b8057634e487b7160e01b600052602160045260246000fd5b91905290565b600181811c90821680611b9a57607f821691505b602082108114156108b557634e487b7160e01b600052602260045260246000fd5b600060208284031215611bcd57600080fd5b5051919050565b634e487b7160e01b600052604160045260246000fd5b60405160e0810167ffffffffffffffff81118282101715611c0d57611c0d611bd4565b60405290565b604051601f8201601f1916810167ffffffffffffffff81118282101715611c3c57611c3c611bd4565b604052919050565b600082601f830112611c5557600080fd5b815167ffffffffffffffff811115611c6f57611c6f611bd4565b611c82601f8201601f1916602001611c13565b818152846020838601011115611c9757600080fd5b611ca88260208301602087016119a6565b949350505050565b600067ffffffffffffffff821115611cca57611cca611bd4565b5060051b60200190565b600082601f830112611ce557600080fd5b81516020611cfa611cf583611cb0565b611c13565b82815260059290921b84018101918181019086841115611d1957600080fd5b8286015b84811015611d3d578051611d3081611a15565b8352918301918301611d1d565b509695505050505050565b600082601f830112611d5957600080fd5b81516020611d69611cf583611cb0565b82815260059290921b84018101918181019086841115611d8857600080fd5b8286015b84811015611d3d5780518352918301918301611d8c565b600082601f830112611db457600080fd5b81516020611dc4611cf583611cb0565b82815260059290921b84018101918181019086841115611de357600080fd5b8286015b84811015611d3d57805167ffffffffffffffff811115611e075760008081fd5b611e158986838b0101611c44565b845250918301918301611de7565b600082601f830112611e3457600080fd5b81516020611e44611cf583611cb0565b82815260059290921b84018101918181019086841115611e6357600080fd5b8286015b84811015611d3d57805167ffffffffffffffff811115611e875760008081fd5b611e958986838b0101611c44565b845250918301918301611e67565b600060208284031215611eb557600080fd5b815167ffffffffffffffff80821115611ecd57600080fd5b9083019060e08286031215611ee157600080fd5b611ee9611bea565b82518152602083015182811115611eff57600080fd5b611f0b87828601611c44565b602083015250604083015182811115611f2357600080fd5b611f2f87828601611c44565b604083015250606083015182811115611f4757600080fd5b611f5387828601611cd4565b606083015250608083015182811115611f6b57600080fd5b611f7787828601611d48565b60808301525060a083015182811115611f8f57600080fd5b611f9b87828601611da3565b60a08301525060c083015182811115611fb357600080fd5b611fbf87828601611e23565b60c08301525095945050505050565b634e487b7160e01b600052603260045260246000fd5b634e487b7160e01b600052601160045260246000fd5b600060001982141561200e5761200e611fe4565b5060010190565b8054600090600181811c908083168061202f57607f831692505b602080841082141561205157634e487b7160e01b600052602260045260246000fd5b838852818015612068576001811461207c576120aa565b60ff198616898301526040890196506120aa565b876000528160002060005b868110156120a25781548b8201850152908501908301612087565b8a0183019750505b50505050505092915050565b60018060a01b038616815284602082015260a0604082015260006120dd60a0830186612015565b82810360608401526120ef8186612015565b9150508260808301529695505050505050565b60006020828403121561211457600080fd5b815167ffffffffffffffff81111561212b57600080fd5b611ca884828501611c44565b6000821982111561214a5761214a611fe4565b500190565b60018060a01b038616815284602082015260a06040820152600061217660a08301866119d6565b82810360608401526120ef81866119d6565b60006020828403121561219a57600080fd5b8151801515811461157e57600080fdfea2646970667358221220033643752038d687322f5e81b5e4c28d705b4626c5acbfb28ea98b7d5e15749a64736f6c634300080a0033",
  "linkReferences": {},
  "deployedLinkReferences": {}
}