{
  "_format": "hh-sol-artifact-1",
  "contractName": "TreasuryStorageV1",
  "sourceName": "contracts/Treasury/TreasuryInterfaces.sol",
  "abi": [
    {
      "inputs": [],
      "name": "admin",
      "outputs": [
        {
          "internalType": "address",
          "name": "",
          "type": "address"
        }
      ],
      "stateMutability": "view",
      "type": "function"
    },
    {
      "inputs": [],
      "name": "implementation",
      "outputs": [
        {
          "internalType": "address",
          "name": "",
          "type": "address"
        }
      ],
      "stateMutability": "view",
      "type": "function"
    },
    {
      "inputs": [],
      "name": "note",
      "outputs": [
        {
          "internalType": "contract EIP20Interface",
          "name": "",
          "type": "address"
        }
      ],
      "stateMutability": "view",
      "type": "function"
    },
    {
      "inputs": [],
      "name": "unigov",
      "outputs": [
        {
          "internalType": "contract IProposal",
          "name": "",
          "type": "address"
        }
      ],
      "stateMutability": "view",
      "type": "function"
    }
  ],
  "bytecode": "0x608060405234801561001057600080fd5b5060e58061001f6000396000f3fe6080604052348015600f57600080fd5b506004361060465760003560e01c806326d111f514604b5780635c60da1b1460795780638643921814608b578063f851a44014609d575b600080fd5b600254605d906001600160a01b031681565b6040516001600160a01b03909116815260200160405180910390f35b600154605d906001600160a01b031681565b600354605d906001600160a01b031681565b600054605d906001600160a01b03168156fea2646970667358221220885d0e550eedd8d386f9cec00d22d4b5bea8d56625897c46887990a4f0caedfd64736f6c634300080a0033",
  "linkReferences": {},
  "deployedLinkReferences": {}
}