{
  "_format": "hh-sol-artifact-1",
  "contractName": "AccountantDelegate",
  "sourceName": "contracts/Accountant/AccountantDelegate.sol",
  "abi": [
    {
      "inputs": [],
      "name": "AcceptAdminPendingAdminCheck",
      "type": "error"
    },
    {
      "inputs": [
        {
          "internalType": "uint256",
          "name": "redeemAmount",
          "type": "uint256"
        }
      ],
      "name": "AccountantRedeemError",
      "type": "error"
    },
    {
      "inputs": [
        {
          "internalType": "uint256",
          "name": "borrowAmount",
          "type": "uint256"
        }
      ],
      "name": "AccountantSupplyError",
      "type": "error"
    },
    {
      "inputs": [
        {
          "internalType": "uint256",
          "name": "actualAddAmount",
          "type": "uint256"
        }
      ],
      "name": "AddReservesFactorFreshCheck",
      "type": "error"
    },
    {
      "inputs": [],
      "name": "BorrowCashNotAvailable",
      "type": "error"
    },
    {
      "inputs": [
        {
          "internalType": "uint256",
          "name": "errorCode",
          "type": "uint256"
        }
      ],
      "name": "BorrowComptrollerRejection",
      "type": "error"
    },
    {
      "inputs": [],
      "name": "BorrowFreshnessCheck",
      "type": "error"
    },
    {
      "inputs": [
        {
          "internalType": "uint256",
          "name": "errorCode",
          "type": "uint256"
        }
      ],
      "name": "LiquidateAccrueBorrowInterestFailed",
      "type": "error"
    },
    {
      "inputs": [
        {
          "internalType": "uint256",
          "name": "errorCode",
          "type": "uint256"
        }
      ],
      "name": "LiquidateAccrueCollateralInterestFailed",
      "type": "error"
    },
    {
      "inputs": [],
      "name": "LiquidateCloseAmountIsUintMax",
      "type": "error"
    },
    {
      "inputs": [],
      "name": "LiquidateCloseAmountIsZero",
      "type": "error"
    },
    {
      "inputs": [],
      "name": "LiquidateCollateralFreshnessCheck",
      "type": "error"
    },
    {
      "inputs": [
        {
          "internalType": "uint256",
          "name": "errorCode",
          "type": "uint256"
        }
      ],
      "name": "LiquidateComptrollerRejection",
      "type": "error"
    },
    {
      "inputs": [],
      "name": "LiquidateFreshnessCheck",
      "type": "error"
    },
    {
      "inputs": [],
      "name": "LiquidateLiquidatorIsBorrower",
      "type": "error"
    },
    {
      "inputs": [
        {
          "internalType": "uint256",
          "name": "errorCode",
          "type": "uint256"
        }
      ],
      "name": "LiquidateRepayBorrowFreshFailed",
      "type": "error"
    },
    {
      "inputs": [
        {
          "internalType": "uint256",
          "name": "errorCode",
          "type": "uint256"
        }
      ],
      "name": "LiquidateSeizeComptrollerRejection",
      "type": "error"
    },
    {
      "inputs": [],
      "name": "LiquidateSeizeLiquidatorIsBorrower",
      "type": "error"
    },
    {
      "inputs": [
        {
          "internalType": "uint256",
          "name": "errorCode",
          "type": "uint256"
        }
      ],
      "name": "MintComptrollerRejection",
      "type": "error"
    },
    {
      "inputs": [],
      "name": "MintFreshnessCheck",
      "type": "error"
    },
    {
      "inputs": [
        {
          "internalType": "uint256",
          "name": "errorCode",
          "type": "uint256"
        }
      ],
      "name": "RedeemComptrollerRejection",
      "type": "error"
    },
    {
      "inputs": [],
      "name": "RedeemFreshnessCheck",
      "type": "error"
    },
    {
      "inputs": [],
      "name": "RedeemTransferOutNotPossible",
      "type": "error"
    },
    {
      "inputs": [],
      "name": "ReduceReservesAdminCheck",
      "type": "error"
    },
    {
      "inputs": [],
      "name": "ReduceReservesCashNotAvailable",
      "type": "error"
    },
    {
      "inputs": [],
      "name": "ReduceReservesCashValidation",
      "type": "error"
    },
    {
      "inputs": [],
      "name": "ReduceReservesFreshCheck",
      "type": "error"
    },
    {
      "inputs": [
        {
          "internalType": "uint256",
          "name": "errorCode",
          "type": "uint256"
        }
      ],
      "name": "RepayBorrowComptrollerRejection",
      "type": "error"
    },
    {
      "inputs": [],
      "name": "RepayBorrowFreshnessCheck",
      "type": "error"
    },
    {
      "inputs": [],
      "name": "SetComptrollerOwnerCheck",
      "type": "error"
    },
    {
      "inputs": [],
      "name": "SetInterestRateModelFreshCheck",
      "type": "error"
    },
    {
      "inputs": [],
      "name": "SetInterestRateModelOwnerCheck",
      "type": "error"
    },
    {
      "inputs": [],
      "name": "SetPendingAdminOwnerCheck",
      "type": "error"
    },
    {
      "inputs": [],
      "name": "SetReserveFactorAdminCheck",
      "type": "error"
    },
    {
      "inputs": [],
      "name": "SetReserveFactorBoundsCheck",
      "type": "error"
    },
    {
      "inputs": [],
      "name": "SetReserveFactorFreshCheck",
      "type": "error"
    },
    {
      "inputs": [
        {
          "internalType": "uint256",
          "name": "errorCode",
          "type": "uint256"
        }
      ],
      "name": "TransferComptrollerRejection",
      "type": "error"
    },
    {
      "inputs": [],
      "name": "TransferNotAllowed",
      "type": "error"
    },
    {
      "inputs": [],
      "name": "TransferNotEnough",
      "type": "error"
    },
    {
      "inputs": [],
      "name": "TransferTooMuch",
      "type": "error"
    },
    {
      "anonymous": false,
      "inputs": [
        {
          "indexed": false,
          "internalType": "address",
          "name": "lendingMarketAddress",
          "type": "address"
        }
      ],
      "name": "AcctInit",
      "type": "event"
    },
    {
      "anonymous": false,
      "inputs": [
        {
          "indexed": false,
          "internalType": "uint256",
          "name": "amount",
          "type": "uint256"
        },
        {
          "indexed": false,
          "internalType": "uint256",
          "name": "err",
          "type": "uint256"
        }
      ],
      "name": "AcctSupplied",
      "type": "event"
    },
    {
      "anonymous": false,
      "inputs": [
        {
          "indexed": false,
          "internalType": "uint256",
          "name": "error",
          "type": "uint256"
        },
        {
          "indexed": false,
          "internalType": "uint256",
          "name": "info",
          "type": "uint256"
        },
        {
          "indexed": false,
          "internalType": "uint256",
          "name": "detail",
          "type": "uint256"
        }
      ],
      "name": "Failure",
      "type": "event"
    },
    {
      "inputs": [],
      "name": "NO_ERROR",
      "outputs": [
        {
          "internalType": "uint256",
          "name": "",
          "type": "uint256"
        }
      ],
      "stateMutability": "view",
      "type": "function"
    },
    {
      "inputs": [],
      "name": "admin",
      "outputs": [
        {
          "internalType": "address",
          "name": "",
          "type": "address"
        }
      ],
      "stateMutability": "view",
      "type": "function"
    },
    {
      "inputs": [],
      "name": "cnote",
      "outputs": [
        {
          "internalType": "contract CNote",
          "name": "",
          "type": "address"
        }
      ],
      "stateMutability": "view",
      "type": "function"
    },
    {
      "inputs": [],
      "name": "comptroller",
      "outputs": [
        {
          "internalType": "contract ComptrollerInterface",
          "name": "",
          "type": "address"
        }
      ],
      "stateMutability": "view",
      "type": "function"
    },
    {
      "inputs": [],
      "name": "implementation",
      "outputs": [
        {
          "internalType": "address",
          "name": "",
          "type": "address"
        }
      ],
      "stateMutability": "view",
      "type": "function"
    },
    {
      "inputs": [
        {
          "internalType": "address",
          "name": "treasury_",
          "type": "address"
        },
        {
          "internalType": "address",
          "name": "cnoteAddress_",
          "type": "address"
        },
        {
          "internalType": "address",
          "name": "noteAddress_",
          "type": "address"
        },
        {
          "internalType": "address",
          "name": "comptrollerAddress_",
          "type": "address"
        }
      ],
      "name": "initialize",
      "outputs": [],
      "stateMutability": "nonpayable",
      "type": "function"
    },
    {
      "inputs": [],
      "name": "note",
      "outputs": [
        {
          "internalType": "contract Note",
          "name": "",
          "type": "address"
        }
      ],
      "stateMutability": "view",
      "type": "function"
    },
    {
      "inputs": [
        {
          "internalType": "uint256",
          "name": "amount",
          "type": "uint256"
        }
      ],
      "name": "redeemMarket",
      "outputs": [
        {
          "internalType": "uint256",
          "name": "",
          "type": "uint256"
        }
      ],
      "stateMutability": "nonpayable",
      "type": "function"
    },
    {
      "inputs": [
        {
          "internalType": "uint256",
          "name": "amount",
          "type": "uint256"
        }
      ],
      "name": "supplyMarket",
      "outputs": [
        {
          "internalType": "uint256",
          "name": "",
          "type": "uint256"
        }
      ],
      "stateMutability": "nonpayable",
      "type": "function"
    },
    {
      "inputs": [],
      "name": "sweepInterest",
      "outputs": [
        {
          "internalType": "uint256",
          "name": "",
          "type": "uint256"
        }
      ],
      "stateMutability": "nonpayable",
      "type": "function"
    },
    {
      "inputs": [],
      "name": "treasury",
      "outputs": [
        {
          "internalType": "address",
          "name": "",
          "type": "address"
        }
      ],
      "stateMutability": "view",
      "type": "function"
    },
    {
      "stateMutability": "payable",
      "type": "receive"
    }
  ],
  "bytecode": "0x608060405234801561001057600080fd5b5061116e806100206000396000f3fe6080604052600436106100a05760003560e01c806369ab32501161006457806369ab32501461016c578063778bc487146101815780638003c7d3146101a1578063b972aa05146101c1578063f851a440146101e1578063f8c8765e1461020157600080fd5b806326d111f5146100ac5780633342f689146100e95780635c60da1b1461010c5780635fe3b5671461012c57806361d027b31461014c57600080fd5b366100a757005b600080fd5b3480156100b857600080fd5b506002546100cc906001600160a01b031681565b6040516001600160a01b0390911681526020015b60405180910390f35b3480156100f557600080fd5b506100fe610223565b6040519081526020016100e0565b34801561011857600080fd5b506001546100cc906001600160a01b031681565b34801561013857600080fd5b506004546100cc906001600160a01b031681565b34801561015857600080fd5b506005546100cc906001600160a01b031681565b34801561017857600080fd5b506100fe600081565b34801561018d57600080fd5b506100fe61019c366004610eb9565b61059f565b3480156101ad57600080fd5b506100fe6101bc366004610eb9565b6106e8565b3480156101cd57600080fd5b506003546100cc906001600160a01b031681565b3480156101ed57600080fd5b506000546100cc906001600160a01b031681565b34801561020d57600080fd5b5061022161021c366004610eee565b61087e565b005b6002546040516370a0823160e01b815230600482015260009182916001600160a01b03909116906370a0823190602401602060405180830381865afa158015610270573d6000803e3d6000fd5b505050506040513d601f19601f820116820180604052508101906102949190610f42565b6003546040516370a0823160e01b81523060048201529192506000916001600160a01b03909116906370a0823190602401602060405180830381865afa1580156102e2573d6000803e3d6000fd5b505050506040513d601f19601f820116820180604052508101906103069190610f42565b905060006040518060200160405280600360009054906101000a90046001600160a01b03166001600160a01b031663182df0f56040518163ffffffff1660e01b8152600401602060405180830381865afa158015610368573d6000803e3d6000fd5b505050506040513d601f19601f8201168201806040525081019061038c9190610f42565b90529050600061039c8284610d90565b90506000610420600260009054906101000a90046001600160a01b03166001600160a01b03166318160ddd6040518163ffffffff1660e01b8152600401602060405180830381865afa1580156103f6573d6000803e3d6000fd5b505050506040513d601f19601f8201168201806040525081019061041a9190610f42565b86610da8565b9050808210156104935760405162461bcd60e51b815260206004820152603360248201527f4e6f7465204c6f616e656420746f204c656e64696e674d61726b6574206d75736044820152727420696e63726561736520696e2076616c756560681b60648201526084015b60405180910390fd5b600061049f8383610da8565b60025460055460405163a9059cbb60e01b81526001600160a01b03918216600482015260248101849052929350169063a9059cbb906044016020604051808303816000875af11580156104f6573d6000803e3d6000fd5b505050506040513d601f19601f8201168201806040525081019061051a9190610f5b565b5060035460405163a9059cbb60e01b815260006004820152602481018790526001600160a01b039091169063a9059cbb906044016020604051808303816000875af115801561056d573d6000803e3d6000fd5b505050506040513d601f19601f820116820180604052508101906105919190610f5b565b506000965050505050505090565b6003546000906001600160a01b031633146106365760405162461bcd60e51b815260206004820152604b60248201527f4163636f756e74616e7444656c65676174653a3a737570706c794d61726b657460448201527f3a204f6e6c792074686520434e6f746520636f6e74726163742063616e20737560648201526a1c1c1b1e481b585c9ad95d60aa1b608482015260a40161048a565b60035460405163140e25ad60e31b8152600481018490526000916001600160a01b03169063a0712d68906024016020604051808303816000875af1158015610682573d6000803e3d6000fd5b505050506040513d601f19601f820116820180604052508101906106a69190610f42565b60408051858152602081018390529192507f8156ffa74c944903932f7272c0bfdfd8839fa4d1f575f382f57d5ae72d1a8f35910160405180910390a192915050565b6003546000906001600160a01b0316331461077f5760405162461bcd60e51b815260206004820152604b60248201527f4163636f756e74616e7444656c65676174653a3a72656465656d4d61726b657460448201527f3a204f6e6c792074686520434e6f746520636f6e74726163742063616e20726560648201526a1919595b481b585c9ad95d60aa1b608482015260a40161048a565b60408051602080820180845260035463182df0f560e01b909152925160009383926001600160a01b039091169163182df0f591602480860192908187030181865afa1580156107d2573d6000803e3d6000fd5b505050506040513d601f19601f820116820180604052508101906107f69190610f42565b9052905060006108068483610dbb565b60035460405163db006a7560e01b8152600481018390529192506001600160a01b03169063db006a75906024016020604051808303816000875af1158015610852573d6000803e3d6000fd5b505050506040513d601f19601f820116820180604052508101906108769190610f42565b949350505050565b6000546001600160a01b031633146109085760405162461bcd60e51b815260206004820152604160248201527f4163636f756e74616e7444656c65676174653a3a696e697469616c697a653a2060448201527f6f6e6c792061646d696e2063616e2063616c6c20746869732066756e6374696f6064820152603760f91b608482015260a40161048a565b6001600160a01b03821661097b5760405162461bcd60e51b815260206004820152603460248201527f4163636f756e74616e7444656c65676174653a3a696e697469616c697a653a206044820152731b9bdd19481059191c995cdcc81a5b9d985b1a5960621b606482015260840161048a565b600580546001600160a01b0319166001600160a01b0386161790556040805160018082528183019092526000916020808301908036833701905050905083816000815181106109cc576109cc610f93565b6001600160a01b039283166020918202929092010152600480546001600160a01b0319908116858416178255600280548216878516908117909155600380549092169388169390931790556040516317e3734d60e21b81523391810191909152635f8dcd3490602401600060405180830381600087803b158015610a4f57600080fd5b505af1158015610a63573d6000803e3d6000fd5b50505050600260009054906101000a90046001600160a01b03166001600160a01b031663c3b2d3376040518163ffffffff1660e01b8152600401602060405180830381865afa158015610aba573d6000803e3d6000fd5b505050506040513d601f19601f82011682018060405250810190610ade9190610f42565b6002546040516370a0823160e01b81523360048201526001600160a01b03909116906370a0823190602401602060405180830381865afa158015610b26573d6000803e3d6000fd5b505050506040513d601f19601f82011682018060405250810190610b4a9190610f42565b14610bcb5760405162461bcd60e51b8152602060048201526044602482018190527f4163636f756e74616e7444656c65676174653a3a696e69746961746c697a653a908201527f204163636f756e74616e7420686173206e6f74207265636569766564207061796064820152631b595b9d60e21b608482015260a40161048a565b60048054604051631853304760e31b81526000926001600160a01b039092169163c299823891610bfd91869101610fa9565b6000604051808303816000875af1158015610c1c573d6000803e3d6000fd5b505050506040513d6000823e601f3d908101601f19168201604052610c449190810190610ff6565b905080600081518110610c5957610c59610f93565b6020026020010151600014610c7657610c7460096011610dd9565b505b6040516001600160a01b03861681527f66b7ee3f5e716ea1950e2554720e086c3ea39ada5a90ab123cfda46d48b12ac69060200160405180910390a160035460405163153216a160e01b81523060048201526001600160a01b039091169063153216a190602401600060405180830381600087803b158015610cf757600080fd5b505af1158015610d0b573d6000803e3d6000fd5b505060025460405163095ea7b360e01b81526001600160a01b0389811660048301526000196024830152909116925063095ea7b391506044016020604051808303816000875af1158015610d63573d6000803e3d6000fd5b505050506040513d601f19601f82011682018060405250810190610d879190610f5b565b50505050505050565b600080610d9d8484610e52565b905061087681610e83565b6000610db482846110ca565b9392505050565b6000610db4610dd284670de0b6b3a7640000610ea1565b8351610ead565b60007f45b96fe442630264581b197e84bbada861235052c5a1aadfff9ea4e40a969aa0836011811115610e0e57610e0e6110e1565b836013811115610e2057610e206110e1565b60408051928352602083019190915260009082015260600160405180910390a1826011811115610db457610db46110e1565b6040805160208101909152600081526040518060200160405280610e7a856000015185610ea1565b90529392505050565b8051600090610e9b90670de0b6b3a7640000906110f7565b92915050565b6000610db48284611119565b6000610db482846110f7565b600060208284031215610ecb57600080fd5b5035919050565b80356001600160a01b0381168114610ee957600080fd5b919050565b60008060008060808587031215610f0457600080fd5b610f0d85610ed2565b9350610f1b60208601610ed2565b9250610f2960408601610ed2565b9150610f3760608601610ed2565b905092959194509250565b600060208284031215610f5457600080fd5b5051919050565b600060208284031215610f6d57600080fd5b81518015158114610db457600080fd5b634e487b7160e01b600052604160045260246000fd5b634e487b7160e01b600052603260045260246000fd5b6020808252825182820181905260009190848201906040850190845b81811015610fea5783516001600160a01b031683529284019291840191600101610fc5565b50909695505050505050565b6000602080838503121561100957600080fd5b825167ffffffffffffffff8082111561102157600080fd5b818501915085601f83011261103557600080fd5b81518181111561104757611047610f7d565b8060051b604051601f19603f8301168101818110858211171561106c5761106c610f7d565b60405291825284820192508381018501918883111561108a57600080fd5b938501935b828510156110a85784518452938501939285019261108f565b98975050505050505050565b634e487b7160e01b600052601160045260246000fd5b6000828210156110dc576110dc6110b4565b500390565b634e487b7160e01b600052602160045260246000fd5b60008261111457634e487b7160e01b600052601260045260246000fd5b500490565b6000816000190483118215151615611133576111336110b4565b50029056fea26469706673582212202508e4207a285fdec0f9ee26e36758088d5143161fa01259ca1f767f2972119564736f6c634300080a0033",
  "linkReferences": {},
  "deployedLinkReferences": {}
}