{
  "_format": "hh-sol-artifact-1",
  "contractName": "TreasuryDelegate",
  "sourceName": "contracts/Treasury/TreasuryDelegate.sol",
  "abi": [
    {
      "inputs": [],
      "name": "admin",
      "outputs": [
        {
          "internalType": "address",
          "name": "",
          "type": "address"
        }
      ],
      "stateMutability": "view",
      "type": "function"
    },
    {
      "inputs": [],
      "name": "implementation",
      "outputs": [
        {
          "internalType": "address",
          "name": "",
          "type": "address"
        }
      ],
      "stateMutability": "view",
      "type": "function"
    },
    {
      "inputs": [
        {
          "internalType": "address",
          "name": "note_",
          "type": "address"
        }
      ],
      "name": "initialize",
      "outputs": [],
      "stateMutability": "nonpayable",
      "type": "function"
    },
    {
      "inputs": [],
      "name": "note",
      "outputs": [
        {
          "internalType": "contract EIP20Interface",
          "name": "",
          "type": "address"
        }
      ],
      "stateMutability": "view",
      "type": "function"
    },
    {
      "inputs": [],
      "name": "queryCantoBalance",
      "outputs": [
        {
          "internalType": "uint256",
          "name": "",
          "type": "uint256"
        }
      ],
      "stateMutability": "view",
      "type": "function"
    },
    {
      "inputs": [],
      "name": "queryNoteBalance",
      "outputs": [
        {
          "internalType": "uint256",
          "name": "",
          "type": "uint256"
        }
      ],
      "stateMutability": "view",
      "type": "function"
    },
    {
      "inputs": [
        {
          "internalType": "address",
          "name": "recipient",
          "type": "address"
        },
        {
          "internalType": "uint256",
          "name": "amount",
          "type": "uint256"
        },
        {
          "internalType": "string",
          "name": "denom",
          "type": "string"
        }
      ],
      "name": "sendFund",
      "outputs": [],
      "stateMutability": "nonpayable",
      "type": "function"
    },
    {
      "inputs": [],
      "name": "unigov",
      "outputs": [
        {
          "internalType": "contract IProposal",
          "name": "",
          "type": "address"
        }
      ],
      "stateMutability": "view",
      "type": "function"
    }
  ],
  "bytecode": "0x608060405234801561001057600080fd5b50610525806100206000396000f3fe608060405234801561001057600080fd5b50600436106100885760003560e01c80637b26673c1161005b5780637b26673c146100e857806386439218146100fd578063c4d66de814610110578063f851a4401461012357600080fd5b806303cc29a51461008d5780631ce78bb2146100a257806326d111f5146100aa5780635c60da1b146100d5575b600080fd5b475b6040519081526020015b60405180910390f35b61008f610136565b6002546100bd906001600160a01b031681565b6040516001600160a01b039091168152602001610099565b6001546100bd906001600160a01b031681565b6100fb6100f63660046103fb565b6101ad565b005b6003546100bd906001600160a01b031681565b6100fb61011e366004610482565b610393565b6000546100bd906001600160a01b031681565b6002546040516370a0823160e01b815230600482015260009182916001600160a01b03909116906370a0823190602401602060405180830381865afa158015610183573d6000803e3d6000fd5b505050506040513d601f19601f820116820180604052508101906101a791906104a4565b92915050565b6000546001600160a01b031633146102225760405162461bcd60e51b815260206004820152602e60248201527f54726561737572793a3a73656e6446756e642063616e206f6e6c79206265206360448201526d30b63632b210313c9030b236b4b760911b606482015260840160405180910390fd5b604080518082018252600581526443414e544f60d81b6020909101525184907fac9fb8ee1ff16cf8a1fd14f2b033007d13cc70a50a3cbd4154efb8e0b247187d9061027090859085906104bd565b604051809103902014156102ba576040516001600160a01b0382169085156108fc029086906000818181858888f193505050501580156102b4573d6000803e3d6000fd5b5061038c565b60408051808201825260048152634e4f544560e01b602090910152517f7343b220e6b2909c69d3adb479e1a2847c2e830def068bc249b12af112094ed59061030590859085906104bd565b6040518091039020141561038c5760025460405163a9059cbb60e01b81526001600160a01b038781166004830152602482018790529091169063a9059cbb906044016020604051808303816000875af1158015610366573d6000803e3d6000fd5b505050506040513d601f19601f8201168201806040525081019061038a91906104cd565b505b5050505050565b6000546001600160a01b031633146103aa57600080fd5b6001600160a01b0381166103bd57600080fd5b600280546001600160a01b0319166001600160a01b0392909216919091179055565b80356001600160a01b03811681146103f657600080fd5b919050565b6000806000806060858703121561041157600080fd5b61041a856103df565b935060208501359250604085013567ffffffffffffffff8082111561043e57600080fd5b818701915087601f83011261045257600080fd5b81358181111561046157600080fd5b88602082850101111561047357600080fd5b95989497505060200194505050565b60006020828403121561049457600080fd5b61049d826103df565b9392505050565b6000602082840312156104b657600080fd5b5051919050565b8183823760009101908152919050565b6000602082840312156104df57600080fd5b8151801515811461049d57600080fdfea26469706673582212204657d530ce968446c45636cf75342f76c8e83aa9ef09eb7b51ad6bdd5f3de44a64736f6c634300080a0033",
  "linkReferences": {},
  "deployedLinkReferences": {}
}