{
  "_format": "hh-sol-artifact-1",
  "contractName": "GovernorBravoDelegateStorageV2",
  "sourceName": "contracts/Governance/GovernorBravoInterfaces.sol",
  "abi": [
    {
      "inputs": [],
      "name": "admin",
      "outputs": [
        {
          "internalType": "address",
          "name": "",
          "type": "address"
        }
      ],
      "stateMutability": "view",
      "type": "function"
    },
    {
      "inputs": [],
      "name": "implementation",
      "outputs": [
        {
          "internalType": "address",
          "name": "",
          "type": "address"
        }
      ],
      "stateMutability": "view",
      "type": "function"
    },
    {
      "inputs": [],
      "name": "initialProposalId",
      "outputs": [
        {
          "internalType": "uint256",
          "name": "",
          "type": "uint256"
        }
      ],
      "stateMutability": "view",
      "type": "function"
    },
    {
      "inputs": [
        {
          "internalType": "address",
          "name": "",
          "type": "address"
        }
      ],
      "name": "latestProposalIds",
      "outputs": [
        {
          "internalType": "uint256",
          "name": "",
          "type": "uint256"
        }
      ],
      "stateMutability": "view",
      "type": "function"
    },
    {
      "inputs": [],
      "name": "pendingAdmin",
      "outputs": [
        {
          "internalType": "address",
          "name": "",
          "type": "address"
        }
      ],
      "stateMutability": "view",
      "type": "function"
    },
    {
      "inputs": [],
      "name": "proposalCount",
      "outputs": [
        {
          "internalType": "uint256",
          "name": "",
          "type": "uint256"
        }
      ],
      "stateMutability": "view",
      "type": "function"
    },
    {
      "inputs": [],
      "name": "proposalThreshold",
      "outputs": [
        {
          "internalType": "uint256",
          "name": "",
          "type": "uint256"
        }
      ],
      "stateMutability": "view",
      "type": "function"
    },
    {
      "inputs": [
        {
          "internalType": "uint256",
          "name": "",
          "type": "uint256"
        }
      ],
      "name": "proposals",
      "outputs": [
        {
          "internalType": "uint256",
          "name": "id",
          "type": "uint256"
        },
        {
          "internalType": "address",
          "name": "proposer",
          "type": "address"
        },
        {
          "internalType": "uint256",
          "name": "eta",
          "type": "uint256"
        },
        {
          "internalType": "bool",
          "name": "canceled",
          "type": "bool"
        },
        {
          "internalType": "bool",
          "name": "executed",
          "type": "bool"
        }
      ],
      "stateMutability": "view",
      "type": "function"
    },
    {
      "inputs": [],
      "name": "timelock",
      "outputs": [
        {
          "internalType": "contract TimelockInterface",
          "name": "",
          "type": "address"
        }
      ],
      "stateMutability": "view",
      "type": "function"
    },
    {
      "inputs": [],
      "name": "votingDelay",
      "outputs": [
        {
          "internalType": "uint256",
          "name": "",
          "type": "uint256"
        }
      ],
      "stateMutability": "view",
      "type": "function"
    },
    {
      "inputs": [],
      "name": "votingPeriod",
      "outputs": [
        {
          "internalType": "uint256",
          "name": "",
          "type": "uint256"
        }
      ],
      "stateMutability": "view",
      "type": "function"
    }
  ],
  "bytecode": "0x608060405234801561001057600080fd5b50610270806100206000396000f3fe608060405234801561001057600080fd5b50600436106100a95760003560e01c80635c60da1b116100715780635c60da1b1461019d578063b58131b0146101b0578063d33219b4146101b9578063da35c664146101cc578063f851a440146101d5578063fc4eee42146101e857600080fd5b8063013cf08b146100ae57806302a251a31461013257806317977c611461014957806326782247146101695780633932abb114610194575b600080fd5b6100f96100bc3660046101f1565b600960205260009081526040902080546001820154600283015460079093015491926001600160a01b039091169160ff8082169161010090041685565b604080519586526001600160a01b03909416602086015292840191909152151560608301521515608082015260a0015b60405180910390f35b61013b60045481565b604051908152602001610129565b61013b61015736600461020a565b600a6020526000908152604090205481565b60015461017c906001600160a01b031681565b6040516001600160a01b039091168152602001610129565b61013b60035481565b60025461017c906001600160a01b031681565b61013b60055481565b60085461017c906001600160a01b031681565b61013b60075481565b60005461017c906001600160a01b031681565b61013b60065481565b60006020828403121561020357600080fd5b5035919050565b60006020828403121561021c57600080fd5b81356001600160a01b038116811461023357600080fd5b939250505056fea26469706673582212201d56b4db763dcf23447af1ed225987d82026231298f7471c742bc572ebd718b264736f6c634300080a0033",
  "linkReferences": {},
  "deployedLinkReferences": {}
}