{
  "_format": "hh-sol-artifact-1",
  "contractName": "TreasuryDelegator",
  "sourceName": "contracts/Treasury/TreasuryDelegator.sol",
  "abi": [
    {
      "inputs": [
        {
          "internalType": "address",
          "name": "note_",
          "type": "address"
        },
        {
          "internalType": "address",
          "name": "implementation_",
          "type": "address"
        },
        {
          "internalType": "address",
          "name": "admin_",
          "type": "address"
        }
      ],
      "stateMutability": "nonpayable",
      "type": "constructor"
    },
    {
      "anonymous": false,
      "inputs": [
        {
          "indexed": false,
          "internalType": "address",
          "name": "oldImplementation",
          "type": "address"
        },
        {
          "indexed": false,
          "internalType": "address",
          "name": "newImplementation",
          "type": "address"
        }
      ],
      "name": "NewImplementation",
      "type": "event"
    },
    {
      "stateMutability": "nonpayable",
      "type": "fallback"
    },
    {
      "inputs": [
        {
          "internalType": "address",
          "name": "implementation_",
          "type": "address"
        }
      ],
      "name": "_setImplementation",
      "outputs": [],
      "stateMutability": "nonpayable",
      "type": "function"
    },
    {
      "inputs": [],
      "name": "admin",
      "outputs": [
        {
          "internalType": "address",
          "name": "",
          "type": "address"
        }
      ],
      "stateMutability": "view",
      "type": "function"
    },
    {
      "inputs": [
        {
          "internalType": "bytes",
          "name": "data",
          "type": "bytes"
        }
      ],
      "name": "delegateToImplementation",
      "outputs": [
        {
          "internalType": "bytes",
          "name": "",
          "type": "bytes"
        }
      ],
      "stateMutability": "nonpayable",
      "type": "function"
    },
    {
      "inputs": [
        {
          "internalType": "bytes",
          "name": "data",
          "type": "bytes"
        }
      ],
      "name": "delegateToViewImplementation",
      "outputs": [
        {
          "internalType": "bytes",
          "name": "",
          "type": "bytes"
        }
      ],
      "stateMutability": "view",
      "type": "function"
    },
    {
      "inputs": [],
      "name": "implementation",
      "outputs": [
        {
          "internalType": "address",
          "name": "",
          "type": "address"
        }
      ],
      "stateMutability": "view",
      "type": "function"
    },
    {
      "inputs": [],
      "name": "note",
      "outputs": [
        {
          "internalType": "contract EIP20Interface",
          "name": "",
          "type": "address"
        }
      ],
      "stateMutability": "view",
      "type": "function"
    },
    {
      "inputs": [],
      "name": "queryCantoBalance",
      "outputs": [
        {
          "internalType": "uint256",
          "name": "",
          "type": "uint256"
        }
      ],
      "stateMutability": "view",
      "type": "function"
    },
    {
      "inputs": [],
      "name": "queryNoteBalance",
      "outputs": [
        {
          "internalType": "uint256",
          "name": "",
          "type": "uint256"
        }
      ],
      "stateMutability": "view",
      "type": "function"
    },
    {
      "inputs": [
        {
          "internalType": "address",
          "name": "recipient",
          "type": "address"
        },
        {
          "internalType": "uint256",
          "name": "amount",
          "type": "uint256"
        },
        {
          "internalType": "string",
          "name": "denom",
          "type": "string"
        }
      ],
      "name": "sendFund",
      "outputs": [],
      "stateMutability": "nonpayable",
      "type": "function"
    },
    {
      "inputs": [],
      "name": "unigov",
      "outputs": [
        {
          "internalType": "contract IProposal",
          "name": "",
          "type": "address"
        }
      ],
      "stateMutability": "view",
      "type": "function"
    },
    {
      "stateMutability": "payable",
      "type": "receive"
    }
  ],
  "bytecode": "0x60806040523480156200001157600080fd5b5060405162000ce938038062000ce98339810160408190526200003491620002bd565b600080546001600160a01b031916331790556040516001600160a01b03841660248201526200009690839060440160408051601f198184030181529190526020810180516001600160e01b0390811663189acdbd60e31b17909152620000cb16565b50620000a2826200014a565b600080546001600160a01b0319166001600160a01b039290921691909117905550620003459050565b6060600080846001600160a01b031684604051620000ea919062000307565b600060405180830381855af49150503d806000811462000127576040519150601f19603f3d011682016040523d82523d6000602084013e6200012c565b606091505b5091509150600082141562000142573d60208201fd5b949350505050565b6000546001600160a01b03163314620001bf5760405162461bcd60e51b8152602060048201526036602482015260008051602062000cc983398151915260448201527f656d656e746174696f6e3a2061646d696e206f6e6c790000000000000000000060648201526084015b60405180910390fd5b6001600160a01b0381166200023f5760405162461bcd60e51b815260206004820152604a602482015260008051602062000cc983398151915260448201527f656d656e746174696f6e3a20696e76616c696420696d706c656d656e746174696064820152696f6e206164647265737360b01b608482015260a401620001b6565b600180546001600160a01b038381166001600160a01b031983168117909355604080519190921680825260208201939093527fd604de94d45953f9138079ec1b82d533cb2160c906d1076d1f7ed54befbca97a910160405180910390a15050565b80516001600160a01b0381168114620002b857600080fd5b919050565b600080600060608486031215620002d357600080fd5b620002de84620002a0565b9250620002ee60208501620002a0565b9150620002fe60408501620002a0565b90509250925092565b6000825160005b818110156200032a57602081860181015185830152016200030e565b818111156200033a576000828501525b509190910192915050565b61097480620003556000396000f3fe6080604052600436106100955760003560e01c80635c60da1b116100595780635c60da1b146101e65780637b26673c146102065780638643921814610228578063bb913f4114610248578063f851a440146102685761009c565b806303cc29a5146101245780630933c1ed1461014c5780631ce78bb21461017957806326d111f51461018e5780634487152f146101c65761009c565b3661009c57005b3480156100a857600080fd5b506001546040516000916001600160a01b0316906100c99083903690610623565b600060405180830381855af49150503d8060008114610104576040519150601f19603f3d011682016040523d82523d6000602084013e610109565b606091505b505090506040513d6000823e818015610120573d82f35b3d82fd5b34801561013057600080fd5b50610139610288565b6040519081526020015b60405180910390f35b34801561015857600080fd5b5061016c6101673660046106a2565b6102db565b6040516101439190610752565b34801561018557600080fd5b506101396102fa565b34801561019a57600080fd5b506002546101ae906001600160a01b031681565b6040516001600160a01b039091168152602001610143565b3480156101d257600080fd5b5061016c6101e13660046106a2565b61032d565b3480156101f257600080fd5b506001546101ae906001600160a01b031681565b34801561021257600080fd5b506102266102213660046107a1565b6103f3565b005b34801561023457600080fd5b506003546101ae906001600160a01b031681565b34801561025457600080fd5b50610226610263366004610828565b610443565b34801561027457600080fd5b506000546101ae906001600160a01b031681565b6040805160048152602481019091526020810180516001600160e01b03166303cc29a560e01b17905260009081906102bf9061032d565b9050808060200190518101906102d5919061084a565b91505090565b6001546060906102f4906001600160a01b0316836105b1565b92915050565b6040805160048152602481019091526020810180516001600160e01b0316630e73c5d960e11b17905260009081906102bf905b6060600080306001600160a01b03168460405160240161034d9190610752565b60408051601f198184030181529181526020820180516001600160e01b0316630933c1ed60e01b179052516103829190610863565b600060405180830381855afa9150503d80600081146103bd576040519150601f19603f3d011682016040523d82523d6000602084013e6103c2565b606091505b509150915060008214156103d7573d60208201fd5b808060200190518101906103eb919061087f565b949350505050565b61043c8484848460405160240161040d94939291906108f6565b60408051601f198184030181529190526020810180516001600160e01b0316631ec999cf60e21b1790526102db565b5050505050565b6000546001600160a01b031633146104c15760405162461bcd60e51b815260206004820152603660248201527f476f7665726e6f72427261766f44656c656761746f723a3a5f736574496d706c604482015275656d656e746174696f6e3a2061646d696e206f6e6c7960501b60648201526084015b60405180910390fd5b6001600160a01b0381166105505760405162461bcd60e51b815260206004820152604a60248201527f476f7665726e6f72427261766f44656c656761746f723a3a5f736574496d706c60448201527f656d656e746174696f6e3a20696e76616c696420696d706c656d656e746174696064820152696f6e206164647265737360b01b608482015260a4016104b8565b600180546001600160a01b038381166001600160a01b031983168117909355604080519190921680825260208201939093527fd604de94d45953f9138079ec1b82d533cb2160c906d1076d1f7ed54befbca97a910160405180910390a15050565b6060600080846001600160a01b0316846040516105ce9190610863565b600060405180830381855af49150503d8060008114610609576040519150601f19603f3d011682016040523d82523d6000602084013e61060e565b606091505b509150915060008214156103eb573d60208201fd5b8183823760009101908152919050565b634e487b7160e01b600052604160045260246000fd5b604051601f8201601f1916810167ffffffffffffffff8111828210171561067257610672610633565b604052919050565b600067ffffffffffffffff82111561069457610694610633565b50601f01601f191660200190565b6000602082840312156106b457600080fd5b813567ffffffffffffffff8111156106cb57600080fd5b8201601f810184136106dc57600080fd5b80356106ef6106ea8261067a565b610649565b81815285602083850101111561070457600080fd5b81602084016020830137600091810160200191909152949350505050565b60005b8381101561073d578181015183820152602001610725565b8381111561074c576000848401525b50505050565b6020815260008251806020840152610771816040850160208701610722565b601f01601f19169190910160400192915050565b80356001600160a01b038116811461079c57600080fd5b919050565b600080600080606085870312156107b757600080fd5b6107c085610785565b935060208501359250604085013567ffffffffffffffff808211156107e457600080fd5b818701915087601f8301126107f857600080fd5b81358181111561080757600080fd5b88602082850101111561081957600080fd5b95989497505060200194505050565b60006020828403121561083a57600080fd5b61084382610785565b9392505050565b60006020828403121561085c57600080fd5b5051919050565b60008251610875818460208701610722565b9190910192915050565b60006020828403121561089157600080fd5b815167ffffffffffffffff8111156108a857600080fd5b8201601f810184136108b957600080fd5b80516108c76106ea8261067a565b8181528560208385010111156108dc57600080fd5b6108ed826020830160208601610722565b95945050505050565b6001600160a01b0385168152602081018490526060604082018190528101829052818360808301376000818301608090810191909152601f909201601f19160101939250505056fea26469706673582212206f7264a17b0947cf874d4812243c29058b010597df5363fbf35e5a6ab871169464736f6c634300080a0033476f7665726e6f72427261766f44656c656761746f723a3a5f736574496d706c",
  "linkReferences": {},
  "deployedLinkReferences": {}
}