{
  "_format": "hh-sol-artifact-1",
  "contractName": "Note",
  "sourceName": "contracts/Note.sol",
  "abi": [
    {
      "inputs": [
        {
          "internalType": "uint256",
          "name": "amount",
          "type": "uint256"
        }
      ],
      "stateMutability": "nonpayable",
      "type": "constructor"
    },
    {
      "anonymous": false,
      "inputs": [
        {
          "indexed": true,
          "internalType": "address",
          "name": "owner",
          "type": "address"
        },
        {
          "indexed": true,
          "internalType": "address",
          "name": "spender",
          "type": "address"
        },
        {
          "indexed": false,
          "internalType": "uint256",
          "name": "amount",
          "type": "uint256"
        }
      ],
      "name": "Approval",
      "type": "event"
    },
    {
      "anonymous": false,
      "inputs": [
        {
          "indexed": true,
          "internalType": "address",
          "name": "from",
          "type": "address"
        },
        {
          "indexed": true,
          "internalType": "address",
          "name": "to",
          "type": "address"
        },
        {
          "indexed": false,
          "internalType": "uint256",
          "name": "amount",
          "type": "uint256"
        }
      ],
      "name": "Transfer",
      "type": "event"
    },
    {
      "inputs": [],
      "name": "RetAccountant",
      "outputs": [
        {
          "internalType": "address",
          "name": "",
          "type": "address"
        }
      ],
      "stateMutability": "view",
      "type": "function"
    },
    {
      "inputs": [],
      "name": "_initialSupply",
      "outputs": [
        {
          "internalType": "uint256",
          "name": "",
          "type": "uint256"
        }
      ],
      "stateMutability": "view",
      "type": "function"
    },
    {
      "inputs": [
        {
          "internalType": "address",
          "name": "accountantDelegator",
          "type": "address"
        }
      ],
      "name": "_mint_to_Accountant",
      "outputs": [],
      "stateMutability": "nonpayable",
      "type": "function"
    },
    {
      "inputs": [],
      "name": "accountant",
      "outputs": [
        {
          "internalType": "address",
          "name": "",
          "type": "address"
        }
      ],
      "stateMutability": "view",
      "type": "function"
    },
    {
      "inputs": [],
      "name": "admin",
      "outputs": [
        {
          "internalType": "address",
          "name": "",
          "type": "address"
        }
      ],
      "stateMutability": "view",
      "type": "function"
    },
    {
      "inputs": [
        {
          "internalType": "address",
          "name": "owner",
          "type": "address"
        },
        {
          "internalType": "address",
          "name": "spender",
          "type": "address"
        }
      ],
      "name": "allowance",
      "outputs": [
        {
          "internalType": "uint256",
          "name": "",
          "type": "uint256"
        }
      ],
      "stateMutability": "view",
      "type": "function"
    },
    {
      "inputs": [
        {
          "internalType": "address",
          "name": "spender",
          "type": "address"
        },
        {
          "internalType": "uint256",
          "name": "amount",
          "type": "uint256"
        }
      ],
      "name": "approve",
      "outputs": [
        {
          "internalType": "bool",
          "name": "",
          "type": "bool"
        }
      ],
      "stateMutability": "nonpayable",
      "type": "function"
    },
    {
      "inputs": [
        {
          "internalType": "address",
          "name": "account",
          "type": "address"
        }
      ],
      "name": "balanceOf",
      "outputs": [
        {
          "internalType": "uint256",
          "name": "",
          "type": "uint256"
        }
      ],
      "stateMutability": "view",
      "type": "function"
    },
    {
      "inputs": [],
      "name": "decimals",
      "outputs": [
        {
          "internalType": "uint8",
          "name": "",
          "type": "uint8"
        }
      ],
      "stateMutability": "view",
      "type": "function"
    },
    {
      "inputs": [
        {
          "internalType": "address",
          "name": "spender",
          "type": "address"
        },
        {
          "internalType": "uint256",
          "name": "subtractedValue",
          "type": "uint256"
        }
      ],
      "name": "decreaseAllowance",
      "outputs": [
        {
          "internalType": "bool",
          "name": "",
          "type": "bool"
        }
      ],
      "stateMutability": "nonpayable",
      "type": "function"
    },
    {
      "inputs": [
        {
          "internalType": "address",
          "name": "spender",
          "type": "address"
        },
        {
          "internalType": "uint256",
          "name": "addedValue",
          "type": "uint256"
        }
      ],
      "name": "increaseAllowance",
      "outputs": [
        {
          "internalType": "bool",
          "name": "",
          "type": "bool"
        }
      ],
      "stateMutability": "nonpayable",
      "type": "function"
    },
    {
      "inputs": [],
      "name": "name",
      "outputs": [
        {
          "internalType": "string",
          "name": "",
          "type": "string"
        }
      ],
      "stateMutability": "view",
      "type": "function"
    },
    {
      "inputs": [],
      "name": "symbol",
      "outputs": [
        {
          "internalType": "string",
          "name": "",
          "type": "string"
        }
      ],
      "stateMutability": "view",
      "type": "function"
    },
    {
      "inputs": [],
      "name": "totalSupply",
      "outputs": [
        {
          "internalType": "uint256",
          "name": "",
          "type": "uint256"
        }
      ],
      "stateMutability": "view",
      "type": "function"
    },
    {
      "inputs": [
        {
          "internalType": "address",
          "name": "to",
          "type": "address"
        },
        {
          "internalType": "uint256",
          "name": "amount",
          "type": "uint256"
        }
      ],
      "name": "transfer",
      "outputs": [
        {
          "internalType": "bool",
          "name": "",
          "type": "bool"
        }
      ],
      "stateMutability": "nonpayable",
      "type": "function"
    },
    {
      "inputs": [
        {
          "internalType": "address",
          "name": "from",
          "type": "address"
        },
        {
          "internalType": "address",
          "name": "to",
          "type": "address"
        },
        {
          "internalType": "uint256",
          "name": "amount",
          "type": "uint256"
        }
      ],
      "name": "transferFrom",
      "outputs": [
        {
          "internalType": "bool",
          "name": "",
          "type": "bool"
        }
      ],
      "stateMutability": "nonpayable",
      "type": "function"
    }
  ],
  "bytecode": "0x60806040526000600255600019600655600780546001600160a01b03191690553480156200002c57600080fd5b5060405162000d8238038062000d828339810160408190526200004f9162000178565b6040805180820182526004808252634e6f746560e01b60208084019182528451808601909552828552634e4f544560e01b908501528251929392859262000098929091620000d2565b508151620000ae906005906020850190620000d2565b5060038190556002555050600880546001600160a01b0319163317905550620001cf565b828054620000e09062000192565b90600052602060002090601f0160209004810192826200010457600085556200014f565b82601f106200011f57805160ff19168380011785556200014f565b828001600101855582156200014f579182015b828111156200014f57825182559160200191906001019062000132565b506200015d92915062000161565b5090565b5b808211156200015d576000815560010162000162565b6000602082840312156200018b57600080fd5b5051919050565b600181811c90821680620001a757607f821691505b60208210811415620001c957634e487b7160e01b600052602260045260246000fd5b50919050565b610ba380620001df6000396000f3fe608060405234801561001057600080fd5b50600436106101005760003560e01c80635f8dcd3411610097578063a9059cbb11610066578063a9059cbb1461021e578063c3b2d33714610231578063dd62ed3e1461023a578063f851a4401461024d57600080fd5b80635f8dcd34146101c557806370a08231146101da57806395d89b4114610203578063a457c2d71461020b57600080fd5b8063313ce567116100d3578063313ce5671461016b578063395093511461017a5780634e2a792e1461018d5780634fb3ccc5146101b257600080fd5b806306fdde0314610105578063095ea7b31461012357806318160ddd1461014657806323b872dd14610158575b600080fd5b61010d610260565b60405161011a91906109c1565b60405180910390f35b610136610131366004610a32565b6102f2565b604051901515815260200161011a565b6002545b60405190815260200161011a565b610136610166366004610a5c565b61030a565b6040516012815260200161011a565b610136610188366004610a32565b61032e565b6007546001600160a01b03165b6040516001600160a01b03909116815260200161011a565b60075461019a906001600160a01b031681565b6101d86101d3366004610a98565b610350565b005b61014a6101e8366004610a98565b6001600160a01b031660009081526020819052604090205490565b61010d6103d7565b610136610219366004610a32565b6103e6565b61013661022c366004610a32565b610463565b61014a60035481565b61014a610248366004610aba565b610483565b60085461019a906001600160a01b031681565b60606004805461026f90610aed565b80601f016020809104026020016040519081016040528092919081815260200182805461029b90610aed565b80156102e85780601f106102bd576101008083540402835291602001916102e8565b820191906000526020600020905b8154815290600101906020018083116102cb57829003601f168201915b5050505050905090565b6000336103008185856104ae565b5060019392505050565b6000336103188582856105d2565b61032385858561064e565b506001949350505050565b6000336103008185856103418383610483565b61034b9190610b3e565b6104ae565b6007546001600160a01b03166103695761036933610825565b6007546001600160a01b031633146103c85760405162461bcd60e51b815260206004820152601b60248201527f4e6f74653a3a5f6d696e745f746f5f4163636f756e74616e743a20000000000060448201526064015b60405180910390fd5b6103d4336000196108e2565b50565b60606005805461026f90610aed565b600033816103f48286610483565b9050838110156104545760405162461bcd60e51b815260206004820152602560248201527f45524332303a2064656372656173656420616c6c6f77616e63652062656c6f77604482015264207a65726f60d81b60648201526084016103bf565b610323828661034b8785610b56565b600060025460001415610477576003546002555b3361030081858561064e565b6001600160a01b03918216600090815260016020908152604080832093909416825291909152205490565b6001600160a01b0383166105105760405162461bcd60e51b8152602060048201526024808201527f45524332303a20617070726f76652066726f6d20746865207a65726f206164646044820152637265737360e01b60648201526084016103bf565b6001600160a01b0382166105715760405162461bcd60e51b815260206004820152602260248201527f45524332303a20617070726f766520746f20746865207a65726f206164647265604482015261737360f01b60648201526084016103bf565b6001600160a01b0383811660008181526001602090815260408083209487168084529482529182902085905590518481527f8c5be1e5ebec7d5bd14f71427d1e84f3dd0314c0f7b2291e5b200ac8c7c3b925910160405180910390a3505050565b60006105de8484610483565b9050600654811461064857818110156106395760405162461bcd60e51b815260206004820152601d60248201527f45524332303a20696e73756666696369656e7420616c6c6f77616e636500000060448201526064016103bf565b610648848461034b8585610b56565b50505050565b6001600160a01b0383166106b25760405162461bcd60e51b815260206004820152602560248201527f45524332303a207472616e736665722066726f6d20746865207a65726f206164604482015264647265737360d81b60648201526084016103bf565b6001600160a01b0382166107145760405162461bcd60e51b815260206004820152602360248201527f45524332303a207472616e7366657220746f20746865207a65726f206164647260448201526265737360e81b60648201526084016103bf565b6001600160a01b0383166000908152602081905260409020548181101561078c5760405162461bcd60e51b815260206004820152602660248201527f45524332303a207472616e7366657220616d6f756e7420657863656564732062604482015265616c616e636560d01b60648201526084016103bf565b6107968282610b56565b6001600160a01b0380861660009081526020819052604080822093909355908516815290812080548492906107cc908490610b3e565b92505081905550826001600160a01b0316846001600160a01b03167fddf252ad1be2c89b69c2b068fc378daa952ba7f163c4a11628f55a4df523b3ef8460405161081891815260200190565b60405180910390a3610648565b6007546001600160a01b0316156108b6576008546001600160a01b031633146108b65760405162461bcd60e51b815260206004820152603e60248201527f4e6f74653a3a5f7365744163636f756e74616e74416464726573733a204f6e6c60448201527f792061646d696e206d61792063616c6c20746869732066756e6374696f6e000060648201526084016103bf565b600780546001600160a01b039092166001600160a01b0319928316811790915560088054909216179055565b6001600160a01b0382166109385760405162461bcd60e51b815260206004820152601f60248201527f45524332303a206d696e7420746f20746865207a65726f20616464726573730060448201526064016103bf565b806002600082825461094a9190610b3e565b90915550506001600160a01b03821660009081526020819052604081208054839290610977908490610b3e565b90915550506040518181526001600160a01b038316906000907fddf252ad1be2c89b69c2b068fc378daa952ba7f163c4a11628f55a4df523b3ef9060200160405180910390a35050565b600060208083528351808285015260005b818110156109ee578581018301518582016040015282016109d2565b81811115610a00576000604083870101525b50601f01601f1916929092016040019392505050565b80356001600160a01b0381168114610a2d57600080fd5b919050565b60008060408385031215610a4557600080fd5b610a4e83610a16565b946020939093013593505050565b600080600060608486031215610a7157600080fd5b610a7a84610a16565b9250610a8860208501610a16565b9150604084013590509250925092565b600060208284031215610aaa57600080fd5b610ab382610a16565b9392505050565b60008060408385031215610acd57600080fd5b610ad683610a16565b9150610ae460208401610a16565b90509250929050565b600181811c90821680610b0157607f821691505b60208210811415610b2257634e487b7160e01b600052602260045260246000fd5b50919050565b634e487b7160e01b600052601160045260246000fd5b60008219821115610b5157610b51610b28565b500190565b600082821015610b6857610b68610b28565b50039056fea26469706673582212208845e019be48ef0353585373f59e93af46bca8596af820e8893778b94663287564736f6c634300080a0033",
  "linkReferences": {},
  "deployedLinkReferences": {}
}