{
  "_format": "hh-sol-artifact-1",
  "contractName": "AccountantDelegator",
  "sourceName": "contracts/Accountant/AccountantDelegator.sol",
  "abi": [
    {
      "inputs": [
        {
          "internalType": "address",
          "name": "implementation_",
          "type": "address"
        },
        {
          "internalType": "address",
          "name": "admin_",
          "type": "address"
        },
        {
          "internalType": "address",
          "name": "cnoteAddress_",
          "type": "address"
        },
        {
          "internalType": "address",
          "name": "noteAddress_",
          "type": "address"
        },
        {
          "internalType": "address",
          "name": "comptrollerAddress_",
          "type": "address"
        },
        {
          "internalType": "address",
          "name": "treasury_",
          "type": "address"
        }
      ],
      "stateMutability": "nonpayable",
      "type": "constructor"
    },
    {
      "anonymous": false,
      "inputs": [
        {
          "indexed": false,
          "internalType": "address",
          "name": "lendingMarketAddress",
          "type": "address"
        }
      ],
      "name": "AcctInit",
      "type": "event"
    },
    {
      "anonymous": false,
      "inputs": [
        {
          "indexed": false,
          "internalType": "uint256",
          "name": "amount",
          "type": "uint256"
        },
        {
          "indexed": false,
          "internalType": "uint256",
          "name": "err",
          "type": "uint256"
        }
      ],
      "name": "AcctSupplied",
      "type": "event"
    },
    {
      "anonymous": false,
      "inputs": [
        {
          "indexed": false,
          "internalType": "address",
          "name": "oldImplementation",
          "type": "address"
        },
        {
          "indexed": false,
          "internalType": "address",
          "name": "newImplementation",
          "type": "address"
        }
      ],
      "name": "NewImplementation",
      "type": "event"
    },
    {
      "stateMutability": "payable",
      "type": "fallback"
    },
    {
      "inputs": [
        {
          "internalType": "address",
          "name": "implementation_",
          "type": "address"
        }
      ],
      "name": "_setImplementation",
      "outputs": [],
      "stateMutability": "nonpayable",
      "type": "function"
    },
    {
      "inputs": [],
      "name": "admin",
      "outputs": [
        {
          "internalType": "address",
          "name": "",
          "type": "address"
        }
      ],
      "stateMutability": "view",
      "type": "function"
    },
    {
      "inputs": [],
      "name": "cnote",
      "outputs": [
        {
          "internalType": "contract CNote",
          "name": "",
          "type": "address"
        }
      ],
      "stateMutability": "view",
      "type": "function"
    },
    {
      "inputs": [],
      "name": "comptroller",
      "outputs": [
        {
          "internalType": "contract ComptrollerInterface",
          "name": "",
          "type": "address"
        }
      ],
      "stateMutability": "view",
      "type": "function"
    },
    {
      "inputs": [
        {
          "internalType": "bytes",
          "name": "data",
          "type": "bytes"
        }
      ],
      "name": "delegateToImplementation",
      "outputs": [
        {
          "internalType": "bytes",
          "name": "",
          "type": "bytes"
        }
      ],
      "stateMutability": "nonpayable",
      "type": "function"
    },
    {
      "inputs": [
        {
          "internalType": "bytes",
          "name": "data",
          "type": "bytes"
        }
      ],
      "name": "delegateToViewImplementation",
      "outputs": [
        {
          "internalType": "bytes",
          "name": "",
          "type": "bytes"
        }
      ],
      "stateMutability": "view",
      "type": "function"
    },
    {
      "inputs": [],
      "name": "implementation",
      "outputs": [
        {
          "internalType": "address",
          "name": "",
          "type": "address"
        }
      ],
      "stateMutability": "view",
      "type": "function"
    },
    {
      "inputs": [],
      "name": "note",
      "outputs": [
        {
          "internalType": "contract Note",
          "name": "",
          "type": "address"
        }
      ],
      "stateMutability": "view",
      "type": "function"
    },
    {
      "inputs": [
        {
          "internalType": "uint256",
          "name": "amount",
          "type": "uint256"
        }
      ],
      "name": "redeemMarket",
      "outputs": [
        {
          "internalType": "uint256",
          "name": "",
          "type": "uint256"
        }
      ],
      "stateMutability": "nonpayable",
      "type": "function"
    },
    {
      "inputs": [
        {
          "internalType": "uint256",
          "name": "amount",
          "type": "uint256"
        }
      ],
      "name": "supplyMarket",
      "outputs": [
        {
          "internalType": "uint256",
          "name": "",
          "type": "uint256"
        }
      ],
      "stateMutability": "nonpayable",
      "type": "function"
    },
    {
      "inputs": [],
      "name": "sweepInterest",
      "outputs": [
        {
          "internalType": "uint256",
          "name": "",
          "type": "uint256"
        }
      ],
      "stateMutability": "nonpayable",
      "type": "function"
    },
    {
      "inputs": [],
      "name": "treasury",
      "outputs": [
        {
          "internalType": "address",
          "name": "",
          "type": "address"
        }
      ],
      "stateMutability": "view",
      "type": "function"
    },
    {
      "stateMutability": "payable",
      "type": "receive"
    }
  ],
  "bytecode": "0x60806040523480156200001157600080fd5b5060405162000d6e38038062000d6e8339810160408190526200003491620002de565b600080546001600160a01b031916331790556040516001600160a01b0382811660248301528581166044830152848116606483015283166084820152620000ae90879060a40160408051601f198184030181529190526020810180516001600160e01b03908116637c643b2f60e11b17909152620000e716565b50620000ba8662000166565b5050600080546001600160a01b0319166001600160a01b039490941693909317909255506200039d915050565b6060600080846001600160a01b0316846040516200010691906200035f565b600060405180830381855af49150503d806000811462000143576040519150601f19603f3d011682016040523d82523d6000602084013e62000148565b606091505b509150915060008214156200015e573d60208201fd5b949350505050565b6000546001600160a01b03163314620001db5760405162461bcd60e51b8152602060048201526033602482015260008051602062000d4e83398151915260448201527f6e746174696f6e3a2061646d696e206f6e6c790000000000000000000000000060648201526084015b60405180910390fd5b6001600160a01b038116620002585760405162461bcd60e51b8152602060048201526047602482015260008051602062000d4e83398151915260448201527f6e746174696f6e3a20696e76616c696420696d706c656d656e746174696f6e206064820152666164647265737360c81b608482015260a401620001d2565b600154604080516001600160a01b03928316815291831660208301527fd604de94d45953f9138079ec1b82d533cb2160c906d1076d1f7ed54befbca97a910160405180910390a1600180546001600160a01b0319166001600160a01b0392909216919091179055565b80516001600160a01b0381168114620002d957600080fd5b919050565b60008060008060008060c08789031215620002f857600080fd5b6200030387620002c1565b95506200031360208801620002c1565b94506200032360408801620002c1565b93506200033360608801620002c1565b92506200034360808801620002c1565b91506200035360a08801620002c1565b90509295509295509295565b6000825160005b8181101562000382576020818601810151858301520162000366565b8181111562000392576000828501525b509190910192915050565b6109a180620003ad6000396000f3fe6080604052600436106100ab5760003560e01c806361d027b31161006457806361d027b314610297578063778bc487146102b75780638003c7d3146102d7578063b972aa05146102f7578063bb913f4114610317578063f851a44014610339576100b2565b80630933c1ed146101a657806326d111f5146101dc5780633342f689146102145780634487152f146102375780635c60da1b146102575780635fe3b56714610277576100b2565b366100b257005b341561012b5760405162461bcd60e51b815260206004820152603b60248201527f4163636f756e74616e7444656c656761746f723a66616c6c6261636b3a20636160448201527f6e6e6f742073656e642076616c756520746f2066616c6c6261636b000000000060648201526084015b60405180910390fd5b6001546040516000916001600160a01b03169061014b908390369061071b565b600060405180830381855af49150503d8060008114610186576040519150601f19603f3d011682016040523d82523d6000602084013e61018b565b606091505b505090506040513d6000823e8180156101a2573d82f35b3d82fd5b3480156101b257600080fd5b506101c66101c136600461079a565b610359565b6040516101d3919061084a565b60405180910390f35b3480156101e857600080fd5b506002546101fc906001600160a01b031681565b6040516001600160a01b0390911681526020016101d3565b34801561022057600080fd5b50610229610378565b6040519081526020016101d3565b34801561024357600080fd5b506101c661025236600461079a565b6103cb565b34801561026357600080fd5b506001546101fc906001600160a01b031681565b34801561028357600080fd5b506004546101fc906001600160a01b031681565b3480156102a357600080fd5b506005546101fc906001600160a01b031681565b3480156102c357600080fd5b506102296102d236600461087d565b610491565b3480156102e357600080fd5b506102296102f236600461087d565b6104f6565b34801561030357600080fd5b506003546101fc906001600160a01b031681565b34801561032357600080fd5b50610337610332366004610896565b61053e565b005b34801561034557600080fd5b506000546101fc906001600160a01b031681565b600154606090610372906001600160a01b0316836106a9565b92915050565b6040805160048152602481019091526020810180516001600160e01b0316633342f68960e01b17905260009081906103af90610359565b9050808060200190518101906103c591906108bf565b91505090565b6060600080306001600160a01b0316846040516024016103eb919061084a565b60408051601f198184030181529181526020820180516001600160e01b0316630933c1ed60e01b1790525161042091906108d8565b600060405180830381855afa9150503d806000811461045b576040519150601f19603f3d011682016040523d82523d6000602084013e610460565b606091505b50915091506000821415610475573d60208201fd5b8080602001905181019061048991906108f4565b949350505050565b6000806104d9836040516024016104aa91815260200190565b60408051601f198184030181529190526020810180516001600160e01b031663778bc48760e01b179052610359565b9050808060200190518101906104ef91906108bf565b9392505050565b6000806104d98360405160240161050f91815260200190565b60408051601f198184030181529190526020810180516001600160e01b0316638003c7d360e01b179052610359565b6000546001600160a01b031633146105b45760405162461bcd60e51b815260206004820152603360248201527f4163636f756e74616e7444656c656761746f723a3a5f736574496d706c656d656044820152726e746174696f6e3a2061646d696e206f6e6c7960681b6064820152608401610122565b6001600160a01b0381166106405760405162461bcd60e51b815260206004820152604760248201527f4163636f756e74616e7444656c656761746f723a3a5f736574496d706c656d6560448201527f6e746174696f6e3a20696e76616c696420696d706c656d656e746174696f6e206064820152666164647265737360c81b608482015260a401610122565b600154604080516001600160a01b03928316815291831660208301527fd604de94d45953f9138079ec1b82d533cb2160c906d1076d1f7ed54befbca97a910160405180910390a1600180546001600160a01b0319166001600160a01b0392909216919091179055565b6060600080846001600160a01b0316846040516106c691906108d8565b600060405180830381855af49150503d8060008114610701576040519150601f19603f3d011682016040523d82523d6000602084013e610706565b606091505b50915091506000821415610489573d60208201fd5b8183823760009101908152919050565b634e487b7160e01b600052604160045260246000fd5b604051601f8201601f1916810167ffffffffffffffff8111828210171561076a5761076a61072b565b604052919050565b600067ffffffffffffffff82111561078c5761078c61072b565b50601f01601f191660200190565b6000602082840312156107ac57600080fd5b813567ffffffffffffffff8111156107c357600080fd5b8201601f810184136107d457600080fd5b80356107e76107e282610772565b610741565b8181528560208385010111156107fc57600080fd5b81602084016020830137600091810160200191909152949350505050565b60005b8381101561083557818101518382015260200161081d565b83811115610844576000848401525b50505050565b602081526000825180602084015261086981604085016020870161081a565b601f01601f19169190910160400192915050565b60006020828403121561088f57600080fd5b5035919050565b6000602082840312156108a857600080fd5b81356001600160a01b03811681146104ef57600080fd5b6000602082840312156108d157600080fd5b5051919050565b600082516108ea81846020870161081a565b9190910192915050565b60006020828403121561090657600080fd5b815167ffffffffffffffff81111561091d57600080fd5b8201601f8101841361092e57600080fd5b805161093c6107e282610772565b81815285602083850101111561095157600080fd5b61096282602083016020860161081a565b9594505050505056fea26469706673582212209b9462360bdcf8c53e0eee728d34d0f1ba52d3bd501fa3aaa47f532b1781041064736f6c634300080a00334163636f756e74616e7444656c656761746f723a3a5f736574496d706c656d65",
  "linkReferences": {},
  "deployedLinkReferences": {}
}