{
  "_format": "hh-sol-artifact-1",
  "contractName": "CNote",
  "sourceName": "contracts/CNote.sol",
  "abi": [
    {
      "inputs": [],
      "name": "AcceptAdminPendingAdminCheck",
      "type": "error"
    },
    {
      "inputs": [
        {
          "internalType": "uint256",
          "name": "redeemAmount",
          "type": "uint256"
        }
      ],
      "name": "AccountantRedeemError",
      "type": "error"
    },
    {
      "inputs": [
        {
          "internalType": "uint256",
          "name": "borrowAmount",
          "type": "uint256"
        }
      ],
      "name": "AccountantSupplyError",
      "type": "error"
    },
    {
      "inputs": [
        {
          "internalType": "uint256",
          "name": "actualAddAmount",
          "type": "uint256"
        }
      ],
      "name": "AddReservesFactorFreshCheck",
      "type": "error"
    },
    {
      "inputs": [],
      "name": "BorrowCashNotAvailable",
      "type": "error"
    },
    {
      "inputs": [
        {
          "internalType": "uint256",
          "name": "errorCode",
          "type": "uint256"
        }
      ],
      "name": "BorrowComptrollerRejection",
      "type": "error"
    },
    {
      "inputs": [],
      "name": "BorrowFreshnessCheck",
      "type": "error"
    },
    {
      "inputs": [
        {
          "internalType": "uint256",
          "name": "errorCode",
          "type": "uint256"
        }
      ],
      "name": "LiquidateAccrueBorrowInterestFailed",
      "type": "error"
    },
    {
      "inputs": [
        {
          "internalType": "uint256",
          "name": "errorCode",
          "type": "uint256"
        }
      ],
      "name": "LiquidateAccrueCollateralInterestFailed",
      "type": "error"
    },
    {
      "inputs": [],
      "name": "LiquidateCloseAmountIsUintMax",
      "type": "error"
    },
    {
      "inputs": [],
      "name": "LiquidateCloseAmountIsZero",
      "type": "error"
    },
    {
      "inputs": [],
      "name": "LiquidateCollateralFreshnessCheck",
      "type": "error"
    },
    {
      "inputs": [
        {
          "internalType": "uint256",
          "name": "errorCode",
          "type": "uint256"
        }
      ],
      "name": "LiquidateComptrollerRejection",
      "type": "error"
    },
    {
      "inputs": [],
      "name": "LiquidateFreshnessCheck",
      "type": "error"
    },
    {
      "inputs": [],
      "name": "LiquidateLiquidatorIsBorrower",
      "type": "error"
    },
    {
      "inputs": [
        {
          "internalType": "uint256",
          "name": "errorCode",
          "type": "uint256"
        }
      ],
      "name": "LiquidateRepayBorrowFreshFailed",
      "type": "error"
    },
    {
      "inputs": [
        {
          "internalType": "uint256",
          "name": "errorCode",
          "type": "uint256"
        }
      ],
      "name": "LiquidateSeizeComptrollerRejection",
      "type": "error"
    },
    {
      "inputs": [],
      "name": "LiquidateSeizeLiquidatorIsBorrower",
      "type": "error"
    },
    {
      "inputs": [
        {
          "internalType": "uint256",
          "name": "errorCode",
          "type": "uint256"
        }
      ],
      "name": "MintComptrollerRejection",
      "type": "error"
    },
    {
      "inputs": [],
      "name": "MintFreshnessCheck",
      "type": "error"
    },
    {
      "inputs": [
        {
          "internalType": "uint256",
          "name": "errorCode",
          "type": "uint256"
        }
      ],
      "name": "RedeemComptrollerRejection",
      "type": "error"
    },
    {
      "inputs": [],
      "name": "RedeemFreshnessCheck",
      "type": "error"
    },
    {
      "inputs": [],
      "name": "RedeemTransferOutNotPossible",
      "type": "error"
    },
    {
      "inputs": [],
      "name": "ReduceReservesAdminCheck",
      "type": "error"
    },
    {
      "inputs": [],
      "name": "ReduceReservesCashNotAvailable",
      "type": "error"
    },
    {
      "inputs": [],
      "name": "ReduceReservesCashValidation",
      "type": "error"
    },
    {
      "inputs": [],
      "name": "ReduceReservesFreshCheck",
      "type": "error"
    },
    {
      "inputs": [
        {
          "internalType": "uint256",
          "name": "errorCode",
          "type": "uint256"
        }
      ],
      "name": "RepayBorrowComptrollerRejection",
      "type": "error"
    },
    {
      "inputs": [],
      "name": "RepayBorrowFreshnessCheck",
      "type": "error"
    },
    {
      "inputs": [],
      "name": "SetComptrollerOwnerCheck",
      "type": "error"
    },
    {
      "inputs": [],
      "name": "SetInterestRateModelFreshCheck",
      "type": "error"
    },
    {
      "inputs": [],
      "name": "SetInterestRateModelOwnerCheck",
      "type": "error"
    },
    {
      "inputs": [],
      "name": "SetPendingAdminOwnerCheck",
      "type": "error"
    },
    {
      "inputs": [],
      "name": "SetReserveFactorAdminCheck",
      "type": "error"
    },
    {
      "inputs": [],
      "name": "SetReserveFactorBoundsCheck",
      "type": "error"
    },
    {
      "inputs": [],
      "name": "SetReserveFactorFreshCheck",
      "type": "error"
    },
    {
      "inputs": [
        {
          "internalType": "uint256",
          "name": "errorCode",
          "type": "uint256"
        }
      ],
      "name": "TransferComptrollerRejection",
      "type": "error"
    },
    {
      "inputs": [],
      "name": "TransferNotAllowed",
      "type": "error"
    },
    {
      "inputs": [],
      "name": "TransferNotEnough",
      "type": "error"
    },
    {
      "inputs": [],
      "name": "TransferTooMuch",
      "type": "error"
    },
    {
      "anonymous": false,
      "inputs": [
        {
          "indexed": false,
          "internalType": "address",
          "name": "accountant",
          "type": "address"
        },
        {
          "indexed": false,
          "internalType": "address",
          "name": "accountantPrior",
          "type": "address"
        }
      ],
      "name": "AccountantSet",
      "type": "event"
    },
    {
      "anonymous": false,
      "inputs": [
        {
          "indexed": false,
          "internalType": "uint256",
          "name": "cashPrior",
          "type": "uint256"
        },
        {
          "indexed": false,
          "internalType": "uint256",
          "name": "interestAccumulated",
          "type": "uint256"
        },
        {
          "indexed": false,
          "internalType": "uint256",
          "name": "borrowIndex",
          "type": "uint256"
        },
        {
          "indexed": false,
          "internalType": "uint256",
          "name": "totalBorrows",
          "type": "uint256"
        }
      ],
      "name": "AccrueInterest",
      "type": "event"
    },
    {
      "anonymous": false,
      "inputs": [
        {
          "indexed": true,
          "internalType": "address",
          "name": "owner",
          "type": "address"
        },
        {
          "indexed": true,
          "internalType": "address",
          "name": "spender",
          "type": "address"
        },
        {
          "indexed": false,
          "internalType": "uint256",
          "name": "amount",
          "type": "uint256"
        }
      ],
      "name": "Approval",
      "type": "event"
    },
    {
      "anonymous": false,
      "inputs": [
        {
          "indexed": false,
          "internalType": "address",
          "name": "borrower",
          "type": "address"
        },
        {
          "indexed": false,
          "internalType": "uint256",
          "name": "borrowAmount",
          "type": "uint256"
        },
        {
          "indexed": false,
          "internalType": "uint256",
          "name": "accountBorrows",
          "type": "uint256"
        },
        {
          "indexed": false,
          "internalType": "uint256",
          "name": "totalBorrows",
          "type": "uint256"
        }
      ],
      "name": "Borrow",
      "type": "event"
    },
    {
      "anonymous": false,
      "inputs": [
        {
          "indexed": false,
          "internalType": "address",
          "name": "liquidator",
          "type": "address"
        },
        {
          "indexed": false,
          "internalType": "address",
          "name": "borrower",
          "type": "address"
        },
        {
          "indexed": false,
          "internalType": "uint256",
          "name": "repayAmount",
          "type": "uint256"
        },
        {
          "indexed": false,
          "internalType": "address",
          "name": "cTokenCollateral",
          "type": "address"
        },
        {
          "indexed": false,
          "internalType": "uint256",
          "name": "seizeTokens",
          "type": "uint256"
        }
      ],
      "name": "LiquidateBorrow",
      "type": "event"
    },
    {
      "anonymous": false,
      "inputs": [
        {
          "indexed": false,
          "internalType": "address",
          "name": "minter",
          "type": "address"
        },
        {
          "indexed": false,
          "internalType": "uint256",
          "name": "mintAmount",
          "type": "uint256"
        },
        {
          "indexed": false,
          "internalType": "uint256",
          "name": "mintTokens",
          "type": "uint256"
        }
      ],
      "name": "Mint",
      "type": "event"
    },
    {
      "anonymous": false,
      "inputs": [
        {
          "indexed": false,
          "internalType": "address",
          "name": "oldAdmin",
          "type": "address"
        },
        {
          "indexed": false,
          "internalType": "address",
          "name": "newAdmin",
          "type": "address"
        }
      ],
      "name": "NewAdmin",
      "type": "event"
    },
    {
      "anonymous": false,
      "inputs": [
        {
          "indexed": false,
          "internalType": "contract ComptrollerInterface",
          "name": "oldComptroller",
          "type": "address"
        },
        {
          "indexed": false,
          "internalType": "contract ComptrollerInterface",
          "name": "newComptroller",
          "type": "address"
        }
      ],
      "name": "NewComptroller",
      "type": "event"
    },
    {
      "anonymous": false,
      "inputs": [
        {
          "indexed": false,
          "internalType": "contract InterestRateModel",
          "name": "oldInterestRateModel",
          "type": "address"
        },
        {
          "indexed": false,
          "internalType": "contract InterestRateModel",
          "name": "newInterestRateModel",
          "type": "address"
        }
      ],
      "name": "NewMarketInterestRateModel",
      "type": "event"
    },
    {
      "anonymous": false,
      "inputs": [
        {
          "indexed": false,
          "internalType": "address",
          "name": "oldPendingAdmin",
          "type": "address"
        },
        {
          "indexed": false,
          "internalType": "address",
          "name": "newPendingAdmin",
          "type": "address"
        }
      ],
      "name": "NewPendingAdmin",
      "type": "event"
    },
    {
      "anonymous": false,
      "inputs": [
        {
          "indexed": false,
          "internalType": "uint256",
          "name": "oldReserveFactorMantissa",
          "type": "uint256"
        },
        {
          "indexed": false,
          "internalType": "uint256",
          "name": "newReserveFactorMantissa",
          "type": "uint256"
        }
      ],
      "name": "NewReserveFactor",
      "type": "event"
    },
    {
      "anonymous": false,
      "inputs": [
        {
          "indexed": false,
          "internalType": "address",
          "name": "redeemer",
          "type": "address"
        },
        {
          "indexed": false,
          "internalType": "uint256",
          "name": "redeemAmount",
          "type": "uint256"
        },
        {
          "indexed": false,
          "internalType": "uint256",
          "name": "redeemTokens",
          "type": "uint256"
        }
      ],
      "name": "Redeem",
      "type": "event"
    },
    {
      "anonymous": false,
      "inputs": [
        {
          "indexed": false,
          "internalType": "address",
          "name": "payer",
          "type": "address"
        },
        {
          "indexed": false,
          "internalType": "address",
          "name": "borrower",
          "type": "address"
        },
        {
          "indexed": false,
          "internalType": "uint256",
          "name": "repayAmount",
          "type": "uint256"
        },
        {
          "indexed": false,
          "internalType": "uint256",
          "name": "accountBorrows",
          "type": "uint256"
        },
        {
          "indexed": false,
          "internalType": "uint256",
          "name": "totalBorrows",
          "type": "uint256"
        }
      ],
      "name": "RepayBorrow",
      "type": "event"
    },
    {
      "anonymous": false,
      "inputs": [
        {
          "indexed": false,
          "internalType": "address",
          "name": "benefactor",
          "type": "address"
        },
        {
          "indexed": false,
          "internalType": "uint256",
          "name": "addAmount",
          "type": "uint256"
        },
        {
          "indexed": false,
          "internalType": "uint256",
          "name": "newTotalReserves",
          "type": "uint256"
        }
      ],
      "name": "ReservesAdded",
      "type": "event"
    },
    {
      "anonymous": false,
      "inputs": [
        {
          "indexed": false,
          "internalType": "address",
          "name": "admin",
          "type": "address"
        },
        {
          "indexed": false,
          "internalType": "uint256",
          "name": "reduceAmount",
          "type": "uint256"
        },
        {
          "indexed": false,
          "internalType": "uint256",
          "name": "newTotalReserves",
          "type": "uint256"
        }
      ],
      "name": "ReservesReduced",
      "type": "event"
    },
    {
      "anonymous": false,
      "inputs": [
        {
          "indexed": true,
          "internalType": "address",
          "name": "from",
          "type": "address"
        },
        {
          "indexed": true,
          "internalType": "address",
          "name": "to",
          "type": "address"
        },
        {
          "indexed": false,
          "internalType": "uint256",
          "name": "amount",
          "type": "uint256"
        }
      ],
      "name": "Transfer",
      "type": "event"
    },
    {
      "inputs": [],
      "name": "NO_ERROR",
      "outputs": [
        {
          "internalType": "uint256",
          "name": "",
          "type": "uint256"
        }
      ],
      "stateMutability": "view",
      "type": "function"
    },
    {
      "inputs": [],
      "name": "_acceptAdmin",
      "outputs": [
        {
          "internalType": "uint256",
          "name": "",
          "type": "uint256"
        }
      ],
      "stateMutability": "nonpayable",
      "type": "function"
    },
    {
      "inputs": [
        {
          "internalType": "uint256",
          "name": "addAmount",
          "type": "uint256"
        }
      ],
      "name": "_addReserves",
      "outputs": [
        {
          "internalType": "uint256",
          "name": "",
          "type": "uint256"
        }
      ],
      "stateMutability": "nonpayable",
      "type": "function"
    },
    {
      "inputs": [
        {
          "internalType": "bytes",
          "name": "data",
          "type": "bytes"
        }
      ],
      "name": "_becomeImplementation",
      "outputs": [],
      "stateMutability": "nonpayable",
      "type": "function"
    },
    {
      "inputs": [
        {
          "internalType": "address",
          "name": "compLikeDelegatee",
          "type": "address"
        }
      ],
      "name": "_delegateCompLikeTo",
      "outputs": [],
      "stateMutability": "nonpayable",
      "type": "function"
    },
    {
      "inputs": [
        {
          "internalType": "uint256",
          "name": "reduceAmount",
          "type": "uint256"
        }
      ],
      "name": "_reduceReserves",
      "outputs": [
        {
          "internalType": "uint256",
          "name": "",
          "type": "uint256"
        }
      ],
      "stateMutability": "nonpayable",
      "type": "function"
    },
    {
      "inputs": [],
      "name": "_resignImplementation",
      "outputs": [],
      "stateMutability": "nonpayable",
      "type": "function"
    },
    {
      "inputs": [
        {
          "internalType": "address payable",
          "name": "accountant_",
          "type": "address"
        }
      ],
      "name": "_setAccountantContract",
      "outputs": [],
      "stateMutability": "nonpayable",
      "type": "function"
    },
    {
      "inputs": [
        {
          "internalType": "contract ComptrollerInterface",
          "name": "newComptroller",
          "type": "address"
        }
      ],
      "name": "_setComptroller",
      "outputs": [
        {
          "internalType": "uint256",
          "name": "",
          "type": "uint256"
        }
      ],
      "stateMutability": "nonpayable",
      "type": "function"
    },
    {
      "inputs": [
        {
          "internalType": "contract InterestRateModel",
          "name": "newInterestRateModel",
          "type": "address"
        }
      ],
      "name": "_setInterestRateModel",
      "outputs": [
        {
          "internalType": "uint256",
          "name": "",
          "type": "uint256"
        }
      ],
      "stateMutability": "nonpayable",
      "type": "function"
    },
    {
      "inputs": [
        {
          "internalType": "address payable",
          "name": "newPendingAdmin",
          "type": "address"
        }
      ],
      "name": "_setPendingAdmin",
      "outputs": [
        {
          "internalType": "uint256",
          "name": "",
          "type": "uint256"
        }
      ],
      "stateMutability": "nonpayable",
      "type": "function"
    },
    {
      "inputs": [
        {
          "internalType": "uint256",
          "name": "newReserveFactorMantissa",
          "type": "uint256"
        }
      ],
      "name": "_setReserveFactor",
      "outputs": [
        {
          "internalType": "uint256",
          "name": "",
          "type": "uint256"
        }
      ],
      "stateMutability": "nonpayable",
      "type": "function"
    },
    {
      "inputs": [],
      "name": "accrualBlockNumber",
      "outputs": [
        {
          "internalType": "uint256",
          "name": "",
          "type": "uint256"
        }
      ],
      "stateMutability": "view",
      "type": "function"
    },
    {
      "inputs": [],
      "name": "accrueInterest",
      "outputs": [
        {
          "internalType": "uint256",
          "name": "",
          "type": "uint256"
        }
      ],
      "stateMutability": "nonpayable",
      "type": "function"
    },
    {
      "inputs": [],
      "name": "admin",
      "outputs": [
        {
          "internalType": "address payable",
          "name": "",
          "type": "address"
        }
      ],
      "stateMutability": "view",
      "type": "function"
    },
    {
      "inputs": [
        {
          "internalType": "address",
          "name": "owner",
          "type": "address"
        },
        {
          "internalType": "address",
          "name": "spender",
          "type": "address"
        }
      ],
      "name": "allowance",
      "outputs": [
        {
          "internalType": "uint256",
          "name": "",
          "type": "uint256"
        }
      ],
      "stateMutability": "view",
      "type": "function"
    },
    {
      "inputs": [
        {
          "internalType": "address",
          "name": "spender",
          "type": "address"
        },
        {
          "internalType": "uint256",
          "name": "amount",
          "type": "uint256"
        }
      ],
      "name": "approve",
      "outputs": [
        {
          "internalType": "bool",
          "name": "",
          "type": "bool"
        }
      ],
      "stateMutability": "nonpayable",
      "type": "function"
    },
    {
      "inputs": [
        {
          "internalType": "address",
          "name": "owner",
          "type": "address"
        }
      ],
      "name": "balanceOf",
      "outputs": [
        {
          "internalType": "uint256",
          "name": "",
          "type": "uint256"
        }
      ],
      "stateMutability": "view",
      "type": "function"
    },
    {
      "inputs": [
        {
          "internalType": "address",
          "name": "owner",
          "type": "address"
        }
      ],
      "name": "balanceOfUnderlying",
      "outputs": [
        {
          "internalType": "uint256",
          "name": "",
          "type": "uint256"
        }
      ],
      "stateMutability": "nonpayable",
      "type": "function"
    },
    {
      "inputs": [
        {
          "internalType": "uint256",
          "name": "borrowAmount",
          "type": "uint256"
        }
      ],
      "name": "borrow",
      "outputs": [
        {
          "internalType": "uint256",
          "name": "",
          "type": "uint256"
        }
      ],
      "stateMutability": "nonpayable",
      "type": "function"
    },
    {
      "inputs": [
        {
          "internalType": "address",
          "name": "account",
          "type": "address"
        }
      ],
      "name": "borrowBalanceCurrent",
      "outputs": [
        {
          "internalType": "uint256",
          "name": "",
          "type": "uint256"
        }
      ],
      "stateMutability": "nonpayable",
      "type": "function"
    },
    {
      "inputs": [
        {
          "internalType": "address",
          "name": "account",
          "type": "address"
        }
      ],
      "name": "borrowBalanceStored",
      "outputs": [
        {
          "internalType": "uint256",
          "name": "",
          "type": "uint256"
        }
      ],
      "stateMutability": "view",
      "type": "function"
    },
    {
      "inputs": [],
      "name": "borrowIndex",
      "outputs": [
        {
          "internalType": "uint256",
          "name": "",
          "type": "uint256"
        }
      ],
      "stateMutability": "view",
      "type": "function"
    },
    {
      "inputs": [],
      "name": "borrowRatePerBlock",
      "outputs": [
        {
          "internalType": "uint256",
          "name": "",
          "type": "uint256"
        }
      ],
      "stateMutability": "view",
      "type": "function"
    },
    {
      "inputs": [],
      "name": "comptroller",
      "outputs": [
        {
          "internalType": "contract ComptrollerInterface",
          "name": "",
          "type": "address"
        }
      ],
      "stateMutability": "view",
      "type": "function"
    },
    {
      "inputs": [],
      "name": "decimals",
      "outputs": [
        {
          "internalType": "uint8",
          "name": "",
          "type": "uint8"
        }
      ],
      "stateMutability": "view",
      "type": "function"
    },
    {
      "inputs": [],
      "name": "exchangeRateCurrent",
      "outputs": [
        {
          "internalType": "uint256",
          "name": "",
          "type": "uint256"
        }
      ],
      "stateMutability": "nonpayable",
      "type": "function"
    },
    {
      "inputs": [],
      "name": "exchangeRateStored",
      "outputs": [
        {
          "internalType": "uint256",
          "name": "",
          "type": "uint256"
        }
      ],
      "stateMutability": "view",
      "type": "function"
    },
    {
      "inputs": [
        {
          "internalType": "address",
          "name": "account",
          "type": "address"
        }
      ],
      "name": "getAccountSnapshot",
      "outputs": [
        {
          "internalType": "uint256",
          "name": "",
          "type": "uint256"
        },
        {
          "internalType": "uint256",
          "name": "",
          "type": "uint256"
        },
        {
          "internalType": "uint256",
          "name": "",
          "type": "uint256"
        },
        {
          "internalType": "uint256",
          "name": "",
          "type": "uint256"
        }
      ],
      "stateMutability": "view",
      "type": "function"
    },
    {
      "inputs": [],
      "name": "getAccountant",
      "outputs": [
        {
          "internalType": "address",
          "name": "",
          "type": "address"
        }
      ],
      "stateMutability": "view",
      "type": "function"
    },
    {
      "inputs": [],
      "name": "getCash",
      "outputs": [
        {
          "internalType": "uint256",
          "name": "",
          "type": "uint256"
        }
      ],
      "stateMutability": "view",
      "type": "function"
    },
    {
      "inputs": [],
      "name": "implementation",
      "outputs": [
        {
          "internalType": "address",
          "name": "",
          "type": "address"
        }
      ],
      "stateMutability": "view",
      "type": "function"
    },
    {
      "inputs": [
        {
          "internalType": "address",
          "name": "underlying_",
          "type": "address"
        },
        {
          "internalType": "contract ComptrollerInterface",
          "name": "comptroller_",
          "type": "address"
        },
        {
          "internalType": "contract InterestRateModel",
          "name": "interestRateModel_",
          "type": "address"
        },
        {
          "internalType": "uint256",
          "name": "initialExchangeRateMantissa_",
          "type": "uint256"
        },
        {
          "internalType": "string",
          "name": "name_",
          "type": "string"
        },
        {
          "internalType": "string",
          "name": "symbol_",
          "type": "string"
        },
        {
          "internalType": "uint8",
          "name": "decimals_",
          "type": "uint8"
        }
      ],
      "name": "initialize",
      "outputs": [],
      "stateMutability": "nonpayable",
      "type": "function"
    },
    {
      "inputs": [
        {
          "internalType": "contract ComptrollerInterface",
          "name": "comptroller_",
          "type": "address"
        },
        {
          "internalType": "contract InterestRateModel",
          "name": "interestRateModel_",
          "type": "address"
        },
        {
          "internalType": "uint256",
          "name": "initialExchangeRateMantissa_",
          "type": "uint256"
        },
        {
          "internalType": "string",
          "name": "name_",
          "type": "string"
        },
        {
          "internalType": "string",
          "name": "symbol_",
          "type": "string"
        },
        {
          "internalType": "uint8",
          "name": "decimals_",
          "type": "uint8"
        }
      ],
      "name": "initialize",
      "outputs": [],
      "stateMutability": "nonpayable",
      "type": "function"
    },
    {
      "inputs": [],
      "name": "interestRateModel",
      "outputs": [
        {
          "internalType": "contract InterestRateModel",
          "name": "",
          "type": "address"
        }
      ],
      "stateMutability": "view",
      "type": "function"
    },
    {
      "inputs": [],
      "name": "isCToken",
      "outputs": [
        {
          "internalType": "bool",
          "name": "",
          "type": "bool"
        }
      ],
      "stateMutability": "view",
      "type": "function"
    },
    {
      "inputs": [
        {
          "internalType": "address",
          "name": "borrower",
          "type": "address"
        },
        {
          "internalType": "uint256",
          "name": "repayAmount",
          "type": "uint256"
        },
        {
          "internalType": "contract CTokenInterface",
          "name": "cTokenCollateral",
          "type": "address"
        }
      ],
      "name": "liquidateBorrow",
      "outputs": [
        {
          "internalType": "uint256",
          "name": "",
          "type": "uint256"
        }
      ],
      "stateMutability": "nonpayable",
      "type": "function"
    },
    {
      "inputs": [
        {
          "internalType": "uint256",
          "name": "mintAmount",
          "type": "uint256"
        }
      ],
      "name": "mint",
      "outputs": [
        {
          "internalType": "uint256",
          "name": "",
          "type": "uint256"
        }
      ],
      "stateMutability": "nonpayable",
      "type": "function"
    },
    {
      "inputs": [],
      "name": "name",
      "outputs": [
        {
          "internalType": "string",
          "name": "",
          "type": "string"
        }
      ],
      "stateMutability": "view",
      "type": "function"
    },
    {
      "inputs": [],
      "name": "pendingAdmin",
      "outputs": [
        {
          "internalType": "address payable",
          "name": "",
          "type": "address"
        }
      ],
      "stateMutability": "view",
      "type": "function"
    },
    {
      "inputs": [],
      "name": "protocolSeizeShareMantissa",
      "outputs": [
        {
          "internalType": "uint256",
          "name": "",
          "type": "uint256"
        }
      ],
      "stateMutability": "view",
      "type": "function"
    },
    {
      "inputs": [
        {
          "internalType": "uint256",
          "name": "redeemTokens",
          "type": "uint256"
        }
      ],
      "name": "redeem",
      "outputs": [
        {
          "internalType": "uint256",
          "name": "",
          "type": "uint256"
        }
      ],
      "stateMutability": "nonpayable",
      "type": "function"
    },
    {
      "inputs": [
        {
          "internalType": "uint256",
          "name": "redeemAmount",
          "type": "uint256"
        }
      ],
      "name": "redeemUnderlying",
      "outputs": [
        {
          "internalType": "uint256",
          "name": "",
          "type": "uint256"
        }
      ],
      "stateMutability": "nonpayable",
      "type": "function"
    },
    {
      "inputs": [
        {
          "internalType": "uint256",
          "name": "repayAmount",
          "type": "uint256"
        }
      ],
      "name": "repayBorrow",
      "outputs": [
        {
          "internalType": "uint256",
          "name": "",
          "type": "uint256"
        }
      ],
      "stateMutability": "nonpayable",
      "type": "function"
    },
    {
      "inputs": [
        {
          "internalType": "address",
          "name": "borrower",
          "type": "address"
        },
        {
          "internalType": "uint256",
          "name": "repayAmount",
          "type": "uint256"
        }
      ],
      "name": "repayBorrowBehalf",
      "outputs": [
        {
          "internalType": "uint256",
          "name": "",
          "type": "uint256"
        }
      ],
      "stateMutability": "nonpayable",
      "type": "function"
    },
    {
      "inputs": [],
      "name": "reserveFactorMantissa",
      "outputs": [
        {
          "internalType": "uint256",
          "name": "",
          "type": "uint256"
        }
      ],
      "stateMutability": "view",
      "type": "function"
    },
    {
      "inputs": [
        {
          "internalType": "address",
          "name": "liquidator",
          "type": "address"
        },
        {
          "internalType": "address",
          "name": "borrower",
          "type": "address"
        },
        {
          "internalType": "uint256",
          "name": "seizeTokens",
          "type": "uint256"
        }
      ],
      "name": "seize",
      "outputs": [
        {
          "internalType": "uint256",
          "name": "",
          "type": "uint256"
        }
      ],
      "stateMutability": "nonpayable",
      "type": "function"
    },
    {
      "inputs": [],
      "name": "supplyRatePerBlock",
      "outputs": [
        {
          "internalType": "uint256",
          "name": "",
          "type": "uint256"
        }
      ],
      "stateMutability": "view",
      "type": "function"
    },
    {
      "inputs": [
        {
          "internalType": "contract EIP20NonStandardInterface",
          "name": "token",
          "type": "address"
        }
      ],
      "name": "sweepToken",
      "outputs": [],
      "stateMutability": "nonpayable",
      "type": "function"
    },
    {
      "inputs": [],
      "name": "symbol",
      "outputs": [
        {
          "internalType": "string",
          "name": "",
          "type": "string"
        }
      ],
      "stateMutability": "view",
      "type": "function"
    },
    {
      "inputs": [],
      "name": "totalBorrows",
      "outputs": [
        {
          "internalType": "uint256",
          "name": "",
          "type": "uint256"
        }
      ],
      "stateMutability": "view",
      "type": "function"
    },
    {
      "inputs": [],
      "name": "totalBorrowsCurrent",
      "outputs": [
        {
          "internalType": "uint256",
          "name": "",
          "type": "uint256"
        }
      ],
      "stateMutability": "nonpayable",
      "type": "function"
    },
    {
      "inputs": [],
      "name": "totalReserves",
      "outputs": [
        {
          "internalType": "uint256",
          "name": "",
          "type": "uint256"
        }
      ],
      "stateMutability": "view",
      "type": "function"
    },
    {
      "inputs": [],
      "name": "totalSupply",
      "outputs": [
        {
          "internalType": "uint256",
          "name": "",
          "type": "uint256"
        }
      ],
      "stateMutability": "view",
      "type": "function"
    },
    {
      "inputs": [
        {
          "internalType": "address",
          "name": "dst",
          "type": "address"
        },
        {
          "internalType": "uint256",
          "name": "amount",
          "type": "uint256"
        }
      ],
      "name": "transfer",
      "outputs": [
        {
          "internalType": "bool",
          "name": "",
          "type": "bool"
        }
      ],
      "stateMutability": "nonpayable",
      "type": "function"
    },
    {
      "inputs": [
        {
          "internalType": "address",
          "name": "src",
          "type": "address"
        },
        {
          "internalType": "address",
          "name": "dst",
          "type": "address"
        },
        {
          "internalType": "uint256",
          "name": "amount",
          "type": "uint256"
        }
      ],
      "name": "transferFrom",
      "outputs": [
        {
          "internalType": "bool",
          "name": "",
          "type": "bool"
        }
      ],
      "stateMutability": "nonpayable",
      "type": "function"
    },
    {
      "inputs": [],
      "name": "underlying",
      "outputs": [
        {
          "internalType": "address",
          "name": "",
          "type": "address"
        }
      ],
      "stateMutability": "view",
      "type": "function"
    }
  ],
  "bytecode": "0x608060405234801561001057600080fd5b50614adc806100206000396000f3fe608060405234801561001057600080fd5b50600436106103835760003560e01c806370a08231116101de578063b2a02ff11161010f578063e9c714f2116100ad578063f851a4401161007c578063f851a44014610771578063f8f9da2814610789578063fca7820b14610791578063fe9c44ae146107a457600080fd5b8063e9c714f214610730578063f2b3abbd14610738578063f3fdb15a1461074b578063f5e3c4621461075e57600080fd5b8063c37f68e2116100e9578063c37f68e21461069e578063c5ebeaec146106d1578063db006a75146106e4578063dd62ed3e146106f757600080fd5b8063b2a02ff114610670578063b71d1a0c14610683578063bd6d894d1461069657600080fd5b806395dd91931161017c578063a6afed9511610156578063a6afed9514610644578063a9059cbb1461064c578063aa5af0fd1461065f578063ae9d70b01461066857600080fd5b806395dd91931461060b57806399d8c1b41461061e578063a0712d681461063157600080fd5b80637f1e06be116101b85780637f1e06be146105d4578063852a12e3146105e75780638f840ddd146105fa57806395d89b411461060357600080fd5b806370a082311461059257806373acee98146105bb5780637de9cd22146105c357600080fd5b8063313ce567116102b85780635c60da1b116102565780636752e702116102305780636752e7021461056057806369ab32501461056e5780636c540baf146105765780636f307dc31461057f57600080fd5b80635c60da1b146105275780635fe3b5671461053a578063601a0bf11461054d57600080fd5b80633e941010116102925780633e941010146104e55780634576b5db146104f857806347bd37181461050b57806356e677281461051457600080fd5b8063313ce567146104ab5780633af9e669146104ca5780633b1d21a2146104dd57600080fd5b806318160ddd116103255780631be19560116102ff5780631be195601461044757806323b872dd1461045a5780632608f8181461046d578063267822471461048057600080fd5b806318160ddd14610423578063182df0f51461042c5780631a31d4651461043457600080fd5b8063153216a111610361578063153216a1146103ea578063153ab505146103ff578063173b99041461040757806317bfdfbc1461041057600080fd5b806306fdde0314610388578063095ea7b3146103a65780630e752702146103c9575b600080fd5b6103906107ac565b60405161039d91906144be565b60405180910390f35b6103b96103b4366004614528565b61083a565b604051901515815260200161039d565b6103dc6103d7366004614554565b6108a8565b60405190815260200161039d565b6103fd6103f836600461456d565b6108bb565b005b6103fd6109d9565b6103dc60085481565b6103dc61041e36600461456d565b610a50565b6103dc600d5481565b6103dc610ab7565b6103fd61044236600461464c565b610ac6565b6103fd61045536600461456d565b610b5b565b6103b9610468366004614702565b610d27565b6103dc61047b366004614528565b610d8b565b600454610493906001600160a01b031681565b6040516001600160a01b03909116815260200161039d565b6003546104b89060ff1681565b60405160ff909116815260200161039d565b6103dc6104d836600461456d565b610da0565b6103dc610de6565b6103dc6104f3366004614554565b610df0565b6103dc61050636600461456d565b610e01565b6103dc600b5481565b6103fd610522366004614743565b610f53565b601254610493906001600160a01b031681565b600554610493906001600160a01b031681565b6103dc61055b366004614554565b610fcb565b6103dc666379da05b6000081565b6103dc600081565b6103dc60095481565b601154610493906001600160a01b031681565b6103dc6105a036600461456d565b6001600160a01b03166000908152600e602052604090205490565b6103dc61101e565b6013546001600160a01b0316610493565b6103fd6105e236600461456d565b61107c565b6103dc6105f5366004614554565b611153565b6103dc600c5481565b61039061115e565b6103dc61061936600461456d565b61116b565b6103fd61062c36600461478c565b611176565b6103dc61063f366004614554565b6113d1565b6103dc6113dc565b6103b961065a366004614528565b6115ca565b6103dc600a5481565b6103dc61162d565b6103dc61067e366004614702565b6116c5565b6103dc61069136600461456d565b611728565b6103dc6117b5565b6106b16106ac36600461456d565b611819565b60408051948552602085019390935291830152606082015260800161039d565b6103dc6106df366004614554565b61185a565b6103dc6106f2366004614554565b611865565b6103dc61070536600461482e565b6001600160a01b039182166000908152600f6020908152604080832093909416825291909152205490565b6103dc611870565b6103dc61074636600461456d565b611977565b600654610493906001600160a01b031681565b6103dc61076c366004614867565b61198b565b6003546104939061010090046001600160a01b031681565b6103dc6119a2565b6103dc61079f366004614554565b6119f5565b6103b9600181565b600180546107b9906148a9565b80601f01602080910402602001604051908101604052809291908181526020018280546107e5906148a9565b80156108325780601f1061080757610100808354040283529160200191610832565b820191906000526020600020905b81548152906001019060200180831161081557829003601f168201915b505050505081565b336000818152600f602090815260408083206001600160a01b03871680855292528083208590555191929182907f8c5be1e5ebec7d5bd14f71427d1e84f3dd0314c0f7b2291e5b200ac8c7c3b925906108969087815260200190565b60405180910390a35060019392505050565b60006108b382611a48565b506000919050565b6013546001600160a01b0316156109565760035461010090046001600160a01b031633146109565760405162461bcd60e51b815260206004820152603f60248201527f434e6f74653a3a5f7365744163636f756e74616e74436f6e74726163743a4f6e60448201527f6c792061646d696e206d61792063616c6c20746869732066756e6374696f6e0060648201526084015b60405180910390fd5b601354604080516001600160a01b03808516825290921660208301527f3d6761621144524fc2648d6d2bda0886cba4b9955287da686763570e73785668910160405180910390a1601380546001600160a01b0319166001600160a01b0392909216918217905560038054610100600160a81b031916610100909202919091179055565b60035461010090046001600160a01b03163314610a4e5760405162461bcd60e51b815260206004820152602d60248201527f6f6e6c79207468652061646d696e206d61792063616c6c205f72657369676e4960448201526c36b83632b6b2b73a30ba34b7b760991b606482015260840161094d565b565b6013546000906001600160a01b03163314610a875760005460ff16610a875760405162461bcd60e51b815260040161094d906148e4565b6000805460ff19169055610a996113dc565b50610aa38261116b565b90506000805460ff19166001179055919050565b6000610ac1611aab565b905090565b610ad4868686868686611176565b601180546001600160a01b0319166001600160a01b038916908117909155604080516318160ddd60e01b815290516318160ddd916004808201926020929091908290030181865afa158015610b2d573d6000803e3d6000fd5b505050506040513d601f19601f82011682018060405250810190610b519190614908565b5050505050505050565b60035461010090046001600160a01b03163314610bd25760405162461bcd60e51b815260206004820152602f60248201527f4345726332303a3a7377656570546f6b656e3a206f6e6c792061646d696e206360448201526e616e20737765657020746f6b656e7360881b606482015260840161094d565b6011546001600160a01b0382811691161415610c4b5760405162461bcd60e51b815260206004820152603260248201527f4345726332303a3a7377656570546f6b656e3a2063616e206e6f74207377656560448201527138103ab73232b9363cb4b733903a37b5b2b760711b606482015260840161094d565b6040516370a0823160e01b81523060048201526000906001600160a01b038316906370a0823190602401602060405180830381865afa158015610c92573d6000803e3d6000fd5b505050506040513d601f19601f82011682018060405250810190610cb69190614908565b60035460405163a9059cbb60e01b81526001600160a01b03610100909204821660048201526024810183905291925083169063a9059cbb90604401600060405180830381600087803b158015610d0b57600080fd5b505af1158015610d1f573d6000803e3d6000fd5b505050505050565b6013546000906001600160a01b03163314610d5e5760005460ff16610d5e5760405162461bcd60e51b815260040161094d906148e4565b6000805460ff19168155610d7433868686611b15565b1490506000805460ff191660011790559392505050565b6000610d978383611d43565b50600092915050565b6000806040518060200160405280610db66117b5565b90526001600160a01b0384166000908152600e6020526040902054909150610ddf908290611da7565b9392505050565b6000610ac1611dc7565b6000610dfb82611e3c565b92915050565b60035460009061010090046001600160a01b03163314610e345760405163d219dc1f60e01b815260040160405180910390fd5b60055460408051623f1ee960e11b815290516001600160a01b0392831692851691627e3dd29160048083019260209291908290030181865afa158015610e7e573d6000803e3d6000fd5b505050506040513d601f19601f82011682018060405250810190610ea29190614921565b610eee5760405162461bcd60e51b815260206004820152601c60248201527f6d61726b6572206d6574686f642072657475726e65642066616c736500000000604482015260640161094d565b600580546001600160a01b0319166001600160a01b0385811691821790925560408051928416835260208301919091527f7ac369dbd14fa5ea3f473ed67cc9d598964a77501540ba6751eb0b3decf5870d91015b60405180910390a150600092915050565b60035461010090046001600160a01b03163314610fc85760405162461bcd60e51b815260206004820152602d60248201527f6f6e6c79207468652061646d696e206d61792063616c6c205f6265636f6d654960448201526c36b83632b6b2b73a30ba34b7b760991b606482015260840161094d565b50565b6013546000906001600160a01b031633146110025760005460ff166110025760405162461bcd60e51b815260040161094d906148e4565b6000805460ff191690556110146113dc565b50610aa382611ea7565b6013546000906001600160a01b031633146110555760005460ff166110555760405162461bcd60e51b815260040161094d906148e4565b6000805460ff191690556110676113dc565b5050600b546000805460ff1916600117905590565b60035461010090046001600160a01b031633146110f15760405162461bcd60e51b815260206004820152602d60248201527f6f6e6c79207468652061646d696e206d6179207365742074686520636f6d702d60448201526c6c696b652064656c656761746560981b606482015260840161094d565b6011546040516317066a5760e21b81526001600160a01b03838116600483015290911690635c19a95c90602401600060405180830381600087803b15801561113857600080fd5b505af115801561114c573d6000803e3d6000fd5b5050505050565b60006108b382611fc2565b600280546107b9906148a9565b6000610dfb82612025565b60035461010090046001600160a01b031633146111e15760405162461bcd60e51b8152602060048201526024808201527f6f6e6c792061646d696e206d617920696e697469616c697a6520746865206d616044820152631c9ad95d60e21b606482015260840161094d565b6009541580156111f15750600a54155b6112495760405162461bcd60e51b815260206004820152602360248201527f6d61726b6574206d6179206f6e6c7920626520696e697469616c697a6564206f6044820152626e636560e81b606482015260840161094d565b6007849055836112b45760405162461bcd60e51b815260206004820152603060248201527f696e697469616c2065786368616e67652072617465206d75737420626520677260448201526f32b0ba32b9103a3430b7103d32b9379760811b606482015260840161094d565b60006112bf87610e01565b9050801561130f5760405162461bcd60e51b815260206004820152601a60248201527f73657474696e6720636f6d7074726f6c6c6572206661696c6564000000000000604482015260640161094d565b43600955670de0b6b3a7640000600a556113288661206f565b905080156113835760405162461bcd60e51b815260206004820152602260248201527f73657474696e6720696e7465726573742072617465206d6f64656c206661696c604482015261195960f21b606482015260840161094d565b835161139690600190602087019061442e565b5082516113aa90600290602086019061442e565b50506003805460ff90921660ff199283161790556000805490911660011790555050505050565b60006108b3826121e4565b6009546000904390808214156113f55760009250505090565b60006113ff611dc7565b600b54600c54600a546006546040516315f2405360e01b81526004810186905260248101859052604481018490529495509293919290916000916001600160a01b0316906315f2405390606401602060405180830381865afa158015611469573d6000803e3d6000fd5b505050506040513d601f19601f8201168201806040525081019061148d9190614908565b905065048c273950008111156114e55760405162461bcd60e51b815260206004820152601c60248201527f626f72726f772072617465206973206162737572646c79206869676800000000604482015260640161094d565b60006114f18789614959565b9050600061150d60405180602001604052808581525083612235565b9050600061151b8288611da7565b905060006115298883614970565b905060006115486040518060200160405280600854815250848a612266565b9050600061155785898a612266565b60098e9055600a819055600b849055600c839055604080518d815260208101879052908101829052606081018590529091507f4dec04e750ca11537cabcd8a9eab06494de08da3735bc8871cd41250e190bc049060800160405180910390a160009d505050505050505050505050505090565b6013546000906001600160a01b031633146116015760005460ff166116015760405162461bcd60e51b815260040161094d906148e4565b6000805460ff1916815561161733808686611b15565b1490506000805460ff1916600117905592915050565b6006546000906001600160a01b031663b8168816611649611dc7565b600b54600c546008546040516001600160e01b031960e087901b16815260048101949094526024840192909252604483015260648201526084015b602060405180830381865afa1580156116a1573d6000803e3d6000fd5b505050506040513d601f19601f82011682018060405250810190610ac19190614908565b6013546000906001600160a01b031633146116fc5760005460ff166116fc5760405162461bcd60e51b815260040161094d906148e4565b6000805460ff1916905561171233858585612287565b50600080805460ff191660011790559392505050565b60035460009061010090046001600160a01b0316331461175b57604051635cb56c2b60e01b815260040160405180910390fd5b600480546001600160a01b038481166001600160a01b031983168117909355604080519190921680825260208201939093527fca4f2f25d0898edd99413412fb94012f9e54ec8142f9b093e7720646a95b16a99101610f42565b6013546000906001600160a01b031633146117ec5760005460ff166117ec5760405162461bcd60e51b815260040161094d906148e4565b6000805460ff191690556117fe6113dc565b50611807610ab7565b90506000805460ff1916600117905590565b6001600160a01b0381166000908152600e6020526040812054819081908190819061184387612025565b61184b611aab565b93509350935093509193509193565b60006108b382612500565b60006108b382612551565b6004546000906001600160a01b03163314158061188b575033155b156118a957604051631ba24f2960e21b815260040160405180910390fd5b60038054600480546001600160a01b03808216610100818102610100600160a81b0319871617968790556001600160a01b031990931690935560408051948390048216808652929095041660208401529290917ff9ffabca9c8276e99321725bcb43fb076a6c66a54b7f21c4e8146d8519b417dc910160405180910390a1600454604080516001600160a01b03808516825290921660208301527fca4f2f25d0898edd99413412fb94012f9e54ec8142f9b093e7720646a95b16a9910160405180910390a160009250505090565b60006119816113dc565b50610dfb8261206f565b60006119988484846125a4565b5060009392505050565b6006546000906001600160a01b03166315f240536119be611dc7565b600b54600c546040516001600160e01b031960e086901b168152600481019390935260248301919091526044820152606401611684565b6013546000906001600160a01b03163314611a2c5760005460ff16611a2c5760405162461bcd60e51b815260040161094d906148e4565b6000805460ff19169055611a3e6113dc565b50610aa382612694565b6013546001600160a01b03163314611a7c5760005460ff16611a7c5760405162461bcd60e51b815260040161094d906148e4565b6000805460ff19169055611a8e6113dc565b50611a9a333383612750565b50506000805460ff19166001179055565b600d5460009080611abe57505060075490565b6000611ac8611dc7565b90506000600c54600b5483611add9190614970565b611ae79190614959565b9050600083611afe670de0b6b3a764000084614988565b611b0891906149a7565b95945050505050565b5090565b6005546040516317b9b84b60e31b81523060048201526001600160a01b038581166024830152848116604483015260648201849052600092839291169063bdcdc258906084016020604051808303816000875af1158015611b7a573d6000803e3d6000fd5b505050506040513d601f19601f82011682018060405250810190611b9e9190614908565b90508015611bc25760405163089d427760e11b81526004810182905260240161094d565b836001600160a01b0316856001600160a01b03161415611bf557604051638cd22d1960e01b815260040160405180910390fd5b6000856001600160a01b0316876001600160a01b03161415611c1a5750600019611c42565b506001600160a01b038086166000908152600f60209081526040808320938a16835292905220545b6000611c4e8583614959565b6001600160a01b0388166000908152600e602052604081205491925090611c76908790614959565b6001600160a01b0388166000908152600e602052604081205491925090611c9e908890614970565b6001600160a01b03808b166000908152600e6020526040808220869055918b1681522081905590506000198414611cf8576001600160a01b03808a166000908152600f60209081526040808320938e168352929052208390555b876001600160a01b0316896001600160a01b0316600080516020614a8783398151915289604051611d2b91815260200190565b60405180910390a35060009998505050505050505050565b6013546001600160a01b03163314611d775760005460ff16611d775760405162461bcd60e51b815260040161094d906148e4565b6000805460ff19169055611d896113dc565b50611d95338383612750565b50506000805460ff1916600117905550565b600080611db48484612235565b9050611dbf81612b6a565b949350505050565b6011546040516370a0823160e01b81523060048201526000916001600160a01b03169081906370a0823190602401602060405180830381865afa158015611e12573d6000803e3d6000fd5b505050506040513d601f19601f82011682018060405250810190611e369190614908565b91505090565b6013546000906001600160a01b03163314611e735760005460ff16611e735760405162461bcd60e51b815260040161094d906148e4565b6000805460ff19169055611e856113dc565b50611e8f82612b82565b5050600090506000805460ff19166001179055919050565b600354600090819061010090046001600160a01b03163314611edc57604051630f7e5e6d60e41b815260040160405180910390fd5b4360095414611efe57604051630dff50cb60e41b815260040160405180910390fd5b82611f07611dc7565b1015611f2657604051633345e99960e01b815260040160405180910390fd5b600c54831115611f49576040516378d2980560e11b815260040160405180910390fd5b82600c54611f579190614959565b600c819055600354909150611f7a9061010090046001600160a01b031684612c16565b7f3bad0c59cf2f06e7314077049f48a93578cd16f5ef92329f1dab1420a99c177e600360019054906101000a90046001600160a01b03168483604051610f42939291906149c9565b6013546001600160a01b03163314611ff65760005460ff16611ff65760405162461bcd60e51b815260040161094d906148e4565b6000805460ff191690556120086113dc565b5061201533600083612d00565b506000805460ff19166001179055565b6001600160a01b0381166000908152601060205260408120805461204c5750600092915050565b600a54815460009161205d91614988565b9050816001015481611dbf91906149a7565b600354600090819061010090046001600160a01b031633146120a45760405163407fded560e01b815260040160405180910390fd5b43600954146120c657604051630be2a5cb60e11b815260040160405180910390fd5b600660009054906101000a90046001600160a01b03169050826001600160a01b0316632191f92a6040518163ffffffff1660e01b8152600401602060405180830381865afa15801561211c573d6000803e3d6000fd5b505050506040513d601f19601f820116820180604052508101906121409190614921565b61218c5760405162461bcd60e51b815260206004820152601c60248201527f6d61726b6572206d6574686f642072657475726e65642066616c736500000000604482015260640161094d565b600680546001600160a01b0319166001600160a01b0385811691821790925560408051928416835260208301919091527fedffc32e068c7c95dfd4bdfd5c4d939a084d6b11c4199eac8436ed234d72f9269101610f42565b6013546001600160a01b031633146122185760005460ff166122185760405162461bcd60e51b815260040161094d906148e4565b6000805460ff1916905561222a6113dc565b506120153382613131565b604080516020810190915260008152604051806020016040528061225d8560000151856134fd565b90529392505050565b6000806122738585612235565b9050611b0861228182612b6a565b84613509565b60055460405163d02f735160e01b81523060048201526001600160a01b0386811660248301528581166044830152848116606483015260848201849052600092169063d02f73519060a4016020604051808303816000875af11580156122f1573d6000803e3d6000fd5b505050506040513d601f19601f820116820180604052508101906123159190614908565b90508015612339576040516363e00e3360e11b81526004810182905260240161094d565b836001600160a01b0316836001600160a01b0316141561236c57604051633a94626760e11b815260040160405180910390fd5b600061238d836040518060200160405280666379da05b60000815250613515565b9050600061239b8285614959565b9050600060405180602001604052806123b2611aab565b9052905060006123c28285611da7565b9050600081600c546123d49190614970565b600c819055600d549091506123ea908690614959565b600d556001600160a01b0388166000908152600e6020526040902054612411908890614959565b6001600160a01b03808a166000908152600e602052604080822093909355908b1681522054612441908590614970565b6001600160a01b03808b166000818152600e602052604090819020939093559151908a1690600080516020614a87833981519152906124839088815260200190565b60405180910390a360405185815230906001600160a01b038a1690600080516020614a878339815191529060200160405180910390a37fa91e67c5ea634cd43a12c5a482724b03de01e85ca68702a53d0c2f45cb7c1dc53083836040516124ec939291906149c9565b60405180910390a150505050505050505050565b6013546001600160a01b031633146125345760005460ff166125345760405162461bcd60e51b815260040161094d906148e4565b6000805460ff191690556125466113dc565b506120153382613538565b6013546001600160a01b031633146125855760005460ff166125855760405162461bcd60e51b815260040161094d906148e4565b6000805460ff191690556125976113dc565b5061201533826000612d00565b6013546001600160a01b031633146125d85760005460ff166125d85760405162461bcd60e51b815260040161094d906148e4565b6000805460ff191690556125ea6113dc565b506000816001600160a01b031663a6afed956040518163ffffffff1660e01b81526004016020604051808303816000875af115801561262d573d6000803e3d6000fd5b505050506040513d601f19601f820116820180604052508101906126519190614908565b9050801561267557604051633eea49b760e11b81526004810182905260240161094d565b6126813385858561392d565b50506000805460ff191660011790555050565b60035460009061010090046001600160a01b031633146126c757604051631205b57b60e11b815260040160405180910390fd5b43600954146126e957604051637dfca6b760e11b815260040160405180910390fd5b670de0b6b3a76400008211156127125760405163717220f360e11b815260040160405180910390fd5b600880549083905560408051828152602081018590527faaa68312e2ea9d50e16af5068410ab56e1a1fd06037b1a35664812c30f8214609101610f42565b600554604051631200453160e11b81523060048201526001600160a01b03858116602483015284811660448301526064820184905260009283929116906324008a62906084016020604051808303816000875af11580156127b5573d6000803e3d6000fd5b505050506040513d601f19601f820116820180604052508101906127d99190614908565b905080156127fd5760405163918db40f60e01b81526004810182905260240161094d565b436009541461281f5760405163c9021e2f60e01b815260040160405180910390fd5b600061282a85612025565b90506000600019851461283d578461283f565b815b9050612849611dc7565b156128cf5760405162461bcd60e51b815260206004820152604a60248201527f434e6f74653a3a7265706179426f72726f7746726573683a4c6971756964697460448201527f7920696e204e6f7465204c656e64696e67204d61726b657420697320616c77616064820152691e5cc8199b185cda195960b21b608482015260a40161094d565b60006128db8887613de7565b9050806128e6611dc7565b101561295a5760405162461bcd60e51b815260206004820152603f60248201527f434e6f74653a3a7265706179426f72726f7746726573683a20646f5472616e7360448201527f666572496e20737570706c69656420696e636f727265637420616d6f756e7400606482015260840161094d565b6000612964611dc7565b601354604051638003c7d360e01b8152600481018390529192506000916001600160a01b0390911690638003c7d3906024016020604051808303816000875af11580156129b5573d6000803e3d6000fd5b505050506040513d601f19601f820116820180604052508101906129d99190614908565b905080156129fd5760405163559a735f60e11b81526004810183905260240161094d565b612a05611dc7565b15612a29576013546001600160a01b0316612a2781612a22611dc7565b612c16565b505b612a31611dc7565b15612aa45760405162461bcd60e51b815260206004820152603960248201527f434e6f74653a3a7265706179426f72726f7746726573683a204572726f72206960448201527f6e204163636f756e74616e742e72656465656d4d61726b657400000000000000606482015260840161094d565b6000612ab08487614959565b9050600084600b54612ac29190614959565b6001600160a01b038c1660009081526010602052604090819020848155600a54600190910155600b829055519091507f1a2a22cb034d26d1854bdc6666a5b91fe25efbbb5dcad3b0355478d6f5c362a190612b52908e908e908990879087906001600160a01b03958616815293909416602084015260408301919091526060820152608081019190915260a00190565b60405180910390a150929a9950505050505050505050565b8051600090610dfb90670de0b6b3a7640000906149a7565b60008080804360095414612bac576040516338acf79960e01b81526004810182905260240161094d565b612bb63386613de7565b905080600c54612bc69190614970565b915081600c819055507fa91e67c5ea634cd43a12c5a482724b03de01e85ca68702a53d0c2f45cb7c1dc5338284604051612c02939291906149c9565b60405180910390a160009590945092505050565b60115460405163a9059cbb60e01b81526001600160a01b0384811660048301526024820184905290911690819063a9059cbb90604401600060405180830381600087803b158015612c6657600080fd5b505af1158015612c7a573d6000803e3d6000fd5b5050505060003d60008114612c965760208114612ca057600080fd5b6000199150612cac565b60206000803e60005191505b5080612cfa5760405162461bcd60e51b815260206004820152601960248201527f544f4b454e5f5452414e534645525f4f55545f4641494c454400000000000000604482015260640161094d565b50505050565b6013546001600160a01b0384811691161415612d3357601354612d2e906001600160a01b0316836000613fbe565b505050565b811580612d3e575080155b612d5a5760405162461bcd60e51b815260040161094d906149ea565b60006040518060200160405280612d6f611aab565b905290506000808415612d9057849150612d898386611da7565b9050612da0565b612d9a848461424e565b91508390505b60055460405163eabe7d9160e01b81526000916001600160a01b03169063eabe7d9190612dd59030908b908890600401614a3e565b6020604051808303816000875af1158015612df4573d6000803e3d6000fd5b505050506040513d601f19601f82011682018060405250810190612e189190614908565b90508015612e3c5760405163480f424760e01b81526004810182905260240161094d565b4360095414612e5e576040516391240a1b60e01b815260040160405180910390fd5b612e66611dc7565b15612eeb5760405162461bcd60e51b815260206004820152604960248201527f434e6f74653a3a72656465656d46726573682c204c656e64696e674d61726b6560448201527f7420686173203e20302043617368206265666f7265204163636f756e74616e7460648201526820537570706c69657360b81b608482015260a40161094d565b60135460405163778bc48760e01b8152600481018490526000916001600160a01b03169063778bc487906024016020604051808303816000875af1158015612f37573d6000803e3d6000fd5b505050506040513d601f19601f82011682018060405250810190612f5b9190614908565b90508015612f7f5760405163de70540b60e01b81526004810184905260240161094d565b82612f88611dc7565b14612ffb5760405162461bcd60e51b815260206004820152603c60248201527f434e6f74653a3a72656465656d46726573683a204163636f756e74616e74206860448201527f617320737570706c69656420696e636f727265637420416d6f756e7400000000606482015260840161094d565b6130058884612c16565b83600d546130139190614959565b600d556001600160a01b0388166000908152600e602052604090205461303a908590614959565b6001600160a01b0389166000818152600e602090815260409182902093909355518681523092600080516020614a87833981519152910160405180910390a37fe5b754fb1abb7f01b499791d0b820ae3b6af3424ac1c59768edb53f4ec31a9298884866040516130ac939291906149c9565b60405180910390a16005546040516351dff98960e01b81523060048201526001600160a01b038a811660248301526044820186905260648201879052909116906351dff98990608401600060405180830381600087803b15801561310f57600080fd5b505af1158015613123573d6000803e3d6000fd5b505050505050505050505050565b6013546001600160a01b03838116911614156131615760135461315d906001600160a01b03168261426c565b5050565b600554604051634ef4c3e160e01b81526000916001600160a01b031690634ef4c3e19061319690309087908790600401614a3e565b6020604051808303816000875af11580156131b5573d6000803e3d6000fd5b505050506040513d601f19601f820116820180604052508101906131d99190614908565b905080156131fd576040516349abd4fd60e01b81526004810182905260240161094d565b436009541461321f576040516338d8859760e01b815260040160405180910390fd5b60006040518060200160405280613234611aab565b90529050613240611dc7565b156132b5576040805162461bcd60e51b81526020600482015260248101919091527f434e6f74653a3a6d696e7446726573683a20416e79204c69717569646974792060448201527f696e20746865204c656e64696e67204d61726b657420697320666c6173686564606482015260840161094d565b60006132c18585613de7565b9050806132cc611dc7565b1461334e5760405162461bcd60e51b815260206004820152604660248201527f434e6f74653a3a6d696e7446726573683a204572726f7220696e20646f54726160448201527f6e73666572496e2c20434e6f7465207265736572766573203e3d206d696e7420606482015265105b5bdd5b9d60d21b608482015260a40161094d565b6000613358611dc7565b601354604051638003c7d360e01b8152600481018390529192506000916001600160a01b0390911690638003c7d3906024016020604051808303816000875af11580156133a9573d6000803e3d6000fd5b505050506040513d601f19601f820116820180604052508101906133cd9190614908565b905080156133f15760405163559a735f60e11b81526004810183905260240161094d565b6133f9611dc7565b15613418576013546001600160a01b031661341681612a22611dc7565b505b613420611dc7565b1561342a57600080fd5b6000613436848661424e565b905080600d546134469190614970565b600d556001600160a01b0388166000908152600e602052604090205461346d908290614970565b6001600160a01b0389166000908152600e60205260409081902091909155517f4c209b5fc8ad50758f13e2e1088ba56a560dff690a1c6fef26394f4c03821c4f906134bd908a90879085906149c9565b60405180910390a16040518181526001600160a01b038916903090600080516020614a878339815191529060200160405180910390a35050505050505050565b6000610ddf8284614988565b6000610ddf8284614970565b6000670de0b6b3a764000061352e8484600001516134fd565b610ddf91906149a7565b60055460405163368f515360e21b81526000916001600160a01b03169063da3d454c9061356d90309087908790600401614a3e565b6020604051808303816000875af115801561358c573d6000803e3d6000fd5b505050506040513d601f19601f820116820180604052508101906135b09190614908565b905080156135d45760405163918db40f60e01b81526004810182905260240161094d565b43600954146135f657604051630e8d8c6160e21b815260040160405180910390fd5b6135fe611dc7565b156136715760405162461bcd60e51b815260206004820152603c60248201527f434e6f74653a3a626f72726f7746726573683a496d706f737369626c6520726560448201527f73657276657320696e20434e6f7465206d61726b657420506c61636500000000606482015260840161094d565b6013546001600160a01b03166136e85760405162461bcd60e51b815260206004820152603660248201527f434e6f74653a3a626f72726f7746726573683a4163636f756e74616e742068616044820152751cc81b9bdd081899595b881a5b9a5d1a585b1a5e995960521b606482015260840161094d565b60135460405163778bc48760e01b8152600481018490526000916001600160a01b03169063778bc487906024016020604051808303816000875af1158015613734573d6000803e3d6000fd5b505050506040513d601f19601f820116820180604052508101906137589190614908565b9050801561377c5760405163de70540b60e01b81526004810184905260240161094d565b82613785611dc7565b146137e85760405162461bcd60e51b815260206004820152602d60248201527f434e6f74653a3a626f72726f7746726573683a4572726f7220696e204163636f60448201526c756e74616e7420737570706c7960981b606482015260840161094d565b60006137f385612025565b905060006138018583614970565b9050600085600b546138139190614970565b905061381f8787612c16565b613827611dc7565b156138b45760405162461bcd60e51b815260206004820152605160248201527f434e6f74653a3a626f72726f7746726573683a204572726f7220696e20646f5460448201527f72616e736665724f75742c20696d706f737369626c65204c6971756964697479606482015270081a5b8813195b991a5b99d3585c9ad95d607a1b608482015260a40161094d565b6001600160a01b038716600081815260106020908152604091829020858155600a54600190910155600b849055815192835282018890528101839052606081018290527f13ed6866d4e1ee6da46f845c46d7e54120883d75c5ea9a2dacc1c4ca8984ab809060800160405180910390a150505050505050565b600554604051632fe3f38f60e11b81523060048201526001600160a01b03838116602483015286811660448301528581166064830152608482018590526000921690635fc7e71e9060a4016020604051808303816000875af1158015613997573d6000803e3d6000fd5b505050506040513d601f19601f820116820180604052508101906139bb9190614908565b905080156139df57604051630a14d17960e11b81526004810182905260240161094d565b4360095414613a01576040516380965b1b60e01b815260040160405180910390fd5b43826001600160a01b0316636c540baf6040518163ffffffff1660e01b8152600401602060405180830381865afa158015613a40573d6000803e3d6000fd5b505050506040513d601f19601f82011682018060405250810190613a649190614908565b14613a8257604051631046f38d60e31b815260040160405180910390fd5b846001600160a01b0316846001600160a01b03161415613ab557604051631bd1a62160e21b815260040160405180910390fd5b82613ad35760405163d29da7ef60e01b815260040160405180910390fd5b600019831415613af657604051635982c5bb60e11b815260040160405180910390fd5b6000613b03868686612750565b60055460405163c488847b60e01b815291925060009182916001600160a01b03169063c488847b90613b3d90309089908890600401614a3e565b6040805180830381865afa158015613b59573d6000803e3d6000fd5b505050506040513d601f19601f82011682018060405250810190613b7d9190614a62565b9150915060008214613bed5760405162461bcd60e51b815260206004820152603360248201527f4c49515549444154455f434f4d5054524f4c4c45525f43414c43554c4154455f604482015272105353d5539517d4d152569157d19052531151606a1b606482015260840161094d565b6040516370a0823160e01b81526001600160a01b0388811660048301528291908716906370a0823190602401602060405180830381865afa158015613c36573d6000803e3d6000fd5b505050506040513d601f19601f82011682018060405250810190613c5a9190614908565b1015613ca85760405162461bcd60e51b815260206004820152601860248201527f4c49515549444154455f5345495a455f544f4f5f4d5543480000000000000000604482015260640161094d565b6001600160a01b038516301415613cca57613cc530898984612287565b613d84565b60405163b2a02ff160e01b81526000906001600160a01b0387169063b2a02ff190613cfd908c908c908790600401614a3e565b6020604051808303816000875af1158015613d1c573d6000803e3d6000fd5b505050506040513d601f19601f82011682018060405250810190613d409190614908565b14613d845760405162461bcd60e51b81526020600482015260146024820152731d1bdad95b881cd95a5e9d5c994819985a5b195960621b604482015260640161094d565b604080516001600160a01b038a811682528981166020830152818301869052871660608201526080810183905290517f298637f684da70674f26509b10f07ec2fbc77a335ab1e7d6215a4b2484d8bb529181900360a00190a15050505050505050565b6011546040516370a0823160e01b81523060048201526000916001600160a01b0316908190839082906370a0823190602401602060405180830381865afa158015613e36573d6000803e3d6000fd5b505050506040513d601f19601f82011682018060405250810190613e5a9190614908565b6040516323b872dd60e01b81529091506001600160a01b038316906323b872dd90613e8d90899030908a90600401614a3e565b600060405180830381600087803b158015613ea757600080fd5b505af1158015613ebb573d6000803e3d6000fd5b5050505060003d60008114613ed75760208114613ee157600080fd5b6000199150613eed565b60206000803e60005191505b5080613f3b5760405162461bcd60e51b815260206004820152601860248201527f544f4b454e5f5452414e534645525f494e5f4641494c45440000000000000000604482015260640161094d565b6040516370a0823160e01b81523060048201526000906001600160a01b038616906370a0823190602401602060405180830381865afa158015613f82573d6000803e3d6000fd5b505050506040513d601f19601f82011682018060405250810190613fa69190614908565b9050613fb28382614959565b98975050505050505050565b811580613fc9575080155b613fe55760405162461bcd60e51b815260040161094d906149ea565b60006040518060200160405280613ffa611aab565b90529050600080841561401b578491506140148386611da7565b905061402b565b614025848461424e565b91508390505b60055460405163eabe7d9160e01b81526000916001600160a01b03169063eabe7d91906140609030908b908890600401614a3e565b6020604051808303816000875af115801561407f573d6000803e3d6000fd5b505050506040513d601f19601f820116820180604052508101906140a39190614908565b905080156140c75760405163480f424760e01b81526004810182905260240161094d565b43600954146140e9576040516397b5cfcd60e01b815260040160405180910390fd5b816140f2611dc7565b1015614111576040516391240a1b60e01b815260040160405180910390fd5b82600d5461411f9190614959565b600d556001600160a01b0387166000908152600e6020526040902054614146908490614959565b6001600160a01b0388166000908152600e60205260409020556141698783612c16565b60405183815230906001600160a01b03891690600080516020614a878339815191529060200160405180910390a37fe5b754fb1abb7f01b499791d0b820ae3b6af3424ac1c59768edb53f4ec31a9298783856040516141ca939291906149c9565b60405180910390a16005546040516351dff98960e01b81523060048201526001600160a01b0389811660248301526044820185905260648201869052909116906351dff98990608401600060405180830381600087803b15801561422d57600080fd5b505af1158015614241573d6000803e3d6000fd5b5050505050505050505050565b6000610ddf61426584670de0b6b3a76400006134fd565b8351614422565b600554604051634ef4c3e160e01b81526000916001600160a01b031690634ef4c3e1906142a190309087908790600401614a3e565b6020604051808303816000875af11580156142c0573d6000803e3d6000fd5b505050506040513d601f19601f820116820180604052508101906142e49190614908565b90508015614308576040516349abd4fd60e01b81526004810182905260240161094d565b436009541461432a576040516338d8859760e01b815260040160405180910390fd5b6000604051806020016040528061433f611aab565b90529050600061434f8585613de7565b9050600061435d828461424e565b905080600d5461436d9190614970565b600d556001600160a01b0386166000908152600e6020526040902054614394908290614970565b6001600160a01b0387166000908152600e60205260409081902091909155517f4c209b5fc8ad50758f13e2e1088ba56a560dff690a1c6fef26394f4c03821c4f906143e4908890859085906149c9565b60405180910390a16040518181526001600160a01b038716903090600080516020614a878339815191529060200160405180910390a3505050505050565b6000610ddf82846149a7565b82805461443a906148a9565b90600052602060002090601f01602090048101928261445c57600085556144a2565b82601f1061447557805160ff19168380011785556144a2565b828001600101855582156144a2579182015b828111156144a2578251825591602001919060010190614487565b50611b119291505b80821115611b1157600081556001016144aa565b600060208083528351808285015260005b818110156144eb578581018301518582016040015282016144cf565b818111156144fd576000604083870101525b50601f01601f1916929092016040019392505050565b6001600160a01b0381168114610fc857600080fd5b6000806040838503121561453b57600080fd5b823561454681614513565b946020939093013593505050565b60006020828403121561456657600080fd5b5035919050565b60006020828403121561457f57600080fd5b8135610ddf81614513565b634e487b7160e01b600052604160045260246000fd5b600067ffffffffffffffff808411156145bb576145bb61458a565b604051601f8501601f19908116603f011681019082821181831017156145e3576145e361458a565b816040528093508581528686860111156145fc57600080fd5b858560208301376000602087830101525050509392505050565b600082601f83011261462757600080fd5b610ddf838335602085016145a0565b803560ff8116811461464757600080fd5b919050565b600080600080600080600060e0888a03121561466757600080fd5b873561467281614513565b9650602088013561468281614513565b9550604088013561469281614513565b945060608801359350608088013567ffffffffffffffff808211156146b657600080fd5b6146c28b838c01614616565b945060a08a01359150808211156146d857600080fd5b506146e58a828b01614616565b9250506146f460c08901614636565b905092959891949750929550565b60008060006060848603121561471757600080fd5b833561472281614513565b9250602084013561473281614513565b929592945050506040919091013590565b60006020828403121561475557600080fd5b813567ffffffffffffffff81111561476c57600080fd5b8201601f8101841361477d57600080fd5b611dbf848235602084016145a0565b60008060008060008060c087890312156147a557600080fd5b86356147b081614513565b955060208701356147c081614513565b945060408701359350606087013567ffffffffffffffff808211156147e457600080fd5b6147f08a838b01614616565b9450608089013591508082111561480657600080fd5b5061481389828a01614616565b92505061482260a08801614636565b90509295509295509295565b6000806040838503121561484157600080fd5b823561484c81614513565b9150602083013561485c81614513565b809150509250929050565b60008060006060848603121561487c57600080fd5b833561488781614513565b925060208401359150604084013561489e81614513565b809150509250925092565b600181811c908216806148bd57607f821691505b602082108114156148de57634e487b7160e01b600052602260045260246000fd5b50919050565b6020808252600a90820152691c994b595b9d195c995960b21b604082015260600190565b60006020828403121561491a57600080fd5b5051919050565b60006020828403121561493357600080fd5b81518015158114610ddf57600080fd5b634e487b7160e01b600052601160045260246000fd5b60008282101561496b5761496b614943565b500390565b6000821982111561498357614983614943565b500190565b60008160001904831182151516156149a2576149a2614943565b500290565b6000826149c457634e487b7160e01b600052601260045260246000fd5b500490565b6001600160a01b039390931683526020830191909152604082015260600190565b60208082526034908201527f6f6e65206f662072656465656d546f6b656e73496e206f722072656465656d416040820152736d6f756e74496e206d757374206265207a65726f60601b606082015260800190565b6001600160a01b039384168152919092166020820152604081019190915260600190565b60008060408385031215614a7557600080fd5b50508051602090910151909290915056feddf252ad1be2c89b69c2b068fc378daa952ba7f163c4a11628f55a4df523b3efa2646970667358221220d46fecf289080179dba557d69237b6117426f070d25eff688baf3d9ab69a561664736f6c634300080a0033",
  "linkReferences": {},
  "deployedLinkReferences": {}
}